:020000040800F2
:1000000030050020A5010008410B00083D0B000849
:100010003F0B0008110200086D0C000800000000F2
:10002000000000000000000000000000C10B0008FC
:100030001302000800000000430B0008C30B000877
:10004000BF010008BF010008BF010008BF01000890
:10005000BF010008BF010008BF010008BF01000880
:10006000BF010008BF010008BF010008BF01000870
:10007000BF010008BF010008BF010008BF01000860
:10008000BF010008BF010008BF010008BF01000850
:10009000BF010008BF010008BF010008BF01000840
:1000A000BF010008BF010008BF010008BF01000830
:1000B000BF0100080000000000000000BF010008B0
:1000C000BF0100080000000000000000BF010008A0
:1000D00000000000BF010008BF0100080000000090
:1000E000BF010008BF010008000000000000000080
:1000F0000000000000000000000000000000000000
:10010000000000000000000000000000BF01000827
:100110000000000000000000BF010008BF0100084F
:10012000BF010008BF010008BF010008BF010008AF
:10013000BF010008000000000000000000000000F7
:10014000BF010008BF010008BF010008BF0100088F
:10015000BF010008BF010008BF010008BF0100087F
:10016000BF010008BF010008BF0100080000000037
:10017000BF010008BF0100080000000000000000EF
:10018000BF010008BF010008BF010008DFF810D060
:1001900000F02CF800480047FD0C0008AFF3008089
:1001A000300500200648804706480047FEE7FEE786
:1001B000FEE7FEE7FEE7FEE7FEE7FEE7FEE7FEE717
:1001C000290C00088D010008D2B201E000F8012BD3
:1001D000491EFBD270470022F6E710B513460A46C7
:1001E00004461946FFF7F0FF204610BD064C074DA8
:1001F00006E0E06840F0010394E8070098471034F7
:10020000AC42F6D3FFF7C6FF780D0008980D000842
:10021000FEE770470F4810B5D0F880100E4C50F82C
:10022000211021608A68521E8A6050F8801F491C84
:10023000016081680748803000F074FD20684068E4
:10024000804720688168002903D1BDE8104000F094
:100250002DBD10BD1800002000000020014880685E
:1002600070470000040000200248816802781144B1
:10027000816070470400002010B50024032000F0C6
:1002800063F8002000F008F808B1012401E000F054
:1002900025F8204610BD000070B50E4E054600241E
:1002A000307898B14FF47A71B1FBF0F00A490968DF
:1002B000B1FBF0F000F02EFC40B9102D06D2002268
:1002C0002946501E00F020F8756000E00124204609
:1002D00070BD00000400002010000020094808B58F
:1002E000016E41F001010166016E01F00101009112
:1002F000816D41F080518165806D00F080500090EB
:1003000008BD000000100240F0B40E4B1B680C4604
:10031000C3F30223C3F10705042D00D90425191DD9
:10032000072901D2002300E0DB1E012606FA05F1B1
:10033000491E214099409E40761E16403143F0BC34
:1003400000F095BC0CED00E0064900F007020868DB
:100350004FF6FF03184040EA0220034A10430860AA
:10036000704700000CED00E00000FA051649B0F5FA
:10037000007F0868C0F3412009D0022805D0086832
:1003800020F4C06040F480600860002070470128BD
:10039000FBD0086820F4C06040F4007008600B488F
:1003A0003222006850430A4AB0FBF2F0401C00E0E1
:1003B000401E4A69520501D50028F9D14869400517
:1003C000E3D50320704700000070004010000020BB
:1003D00040420F000248006800F4C060704700000F
:1003E000007000402DE9F0470F46050058D0404E00
:1003F000306800F00700B84209D2306820F00700EA
:1004000038433060306800F00700B84248D128789F
:10041000384CC0072CD06868032811D0022812D0AD
:10042000216898B1490500293ADAA16821F0030151
:100430000143A160FFF712FF804641F2883910E0C6
:1004400021688901EFE721688903ECE78907EAE77A
:10045000FFF704FFA0EB0801494502D90320BDE8DE
:10046000F087A068696800F00C00B0EB810FEFD155
:100470002878800705D5A068A96820F0F000084317
:10048000A060306800F00700B8420BD9306820F057
:10049000070038433060306800F00700B84201D0F0
:1004A0000120DCE72878400705D5A068E96820F43A
:1004B000E0600843A0602878000706D5A068296995
:1004C00020F4605040EAC100A06000F01BF8A16871
:1004D000094AC1F30311515C01F01F01C8400749EB
:1004E000086007480068BDE8F047FFF7D5BE000088
:1004F0000020024000100240380D000810000020CB
:100500000800002070B52549002318468A68CC6889
:1005100012F00C0204F00306214C4FEA640509D0E6
:100520000C2A05D0042A32D0082A00D1284670BDF2
:10053000012E10D10B681B0704D4D1F89430C3F3FB
:10054000032302E00B68C3F30313164E56F823305F
:10055000DAB10C2AEBD1C86800F00300022818D0E9
:10056000032818D01846CA68CB68C2F30212C3F336
:1005700006234343521CB3FBF2F2C868C0F3416048
:10058000401C4000B2FBF0F070BD184670BD204624
:1005900070BD2046E7E72846E5E70000001002406E
:1005A0000024F400480D00082DE9F84304006FD042
:1005B000FE4DA86800F00C06E86800F003072078FC
:1005C000C00664D576B10C2E01D1012F0AD0A069E6
:1005D000002828687AD040F001002860FFF73EFE2E
:1005E00080465DE02868800702D5A0690028DED03B
:1005F000216A2868000703D5286800F0F00004E0AD
:10060000D5F89400F02202EA1010814216D908466B
:1006100000F098FA00283BD1286840F008002860D4
:100620002868216A20F0F000084328606868E169C2
:1006300020F47F4040EA0120686016E0286840F01E
:10064000080028602868216A20F0F000084328602C
:100650006868E16920F47F4040EA0120686026B9BB
:10066000206A00F06FFA0028D5D1FFF74BFFA96888
:10067000CF4AC1F30311515C01F01F01C840CD49BD
:100680000860CD480068FFF707FE00287ED12EE005
:10069000CAE000BFFFF7E2FDA0EB0800022876D811
:1006A00028688007F6D5286840F008002860286888
:1006B000216A20F0F000084328606868E16920F4AE
:1006C0007F4040EA0120686011E0FFE720F0010070
:1006D0002860FFF7C3FD804606E000BFFFF7BEFDC0
:1006E000A0EB08000228DAD828688007F6D4207822
:1006F000C00740D0082E18D00C2E01D1032F14D0E3
:100700006068B0F5803F17D0B0F5A02F286817D0EB
:1007100020F480302860286820F4802028606068F9
:10072000E0B1FFF79BFD804614E02868800322D5E6
:100730006068002878D01EE0286840F48030EDE73B
:1007400040F480202860F7E7FFF788FDA0EB080061
:100750006428A4D828688003F6D50CE0FFF77EFD56
:10076000804605E0FFF77AFDA0EB0800642896D8E4
:1007700028688003F6D4207880073BD5042E11D05A
:100780000C2E01D1022F0DD0E06801E0B6E1FFE0B0
:10079000002828681ED040F480702860FFF75EFDB6
:1007A00007460CE0286840050CD5E0680028C1D059
:1007B00008E000BFFFF752FDC01B022893D828684D
:1007C0004005F7D56868217C20F0FE4040EA0160D2
:1007D00068600FE020F480702860FFF73FFD074657
:1007E00005E000BFFFF73AFDC01B0228B1D828681A
:1007F0004005F7D42078000729D560690028D5F88E
:10080000940012D040F00100C5F89400FFF726FDD7
:10081000074604E0FFF722FDC01B022899D8D5F84F
:1008200094008007F6D512E02BE120F00100C5F816
:100830009400FFF713FD074605E000BFFFF70EFD2C
:10084000C01B022885D8D5F894008007F6D42078FC
:10085000400766D5A86D0027C00008D4A86D40F0F9
:100860008050A865A86D012700F080500090534883
:100870000168C90512D40168814641F480710160A4
:10088000FFF7ECFC804605E0FFF7E8FCA0EB080072
:1008900002287DD8D9F80000C005F5D5A068012848
:1008A00016D00528D5F8900017D020F00100C5F823
:1008B0009000D5F8900020F0040000BFC5F890002B
:1008C000A06841F28839C0B1FFF7C8FC80460FE04C
:1008D000D5F8900040F00100F0E740F00400C5F8C2
:1008E0009000F5E7FFF7BAFCA0EB080149454FD8A7
:1008F000D5F890008007F5D50EE0FFF7AFFC8046F5
:1009000006E000BFFFF7AAFCA0EB080149453FD86D
:10091000D5F890008007F5D41FB1A86D20F0805065
:10092000A8652078800628D5606A0028D5F8980048
:1009300012D040F00100C5F89800FFF78FFC074681
:1009400005E000BFFFF78AFCC01B022820D8D5F8BD
:1009500098008007F6D510E020F00100C5F8980057
:10096000FFF77CFC074604E0FFF778FCC01B022879
:100970000ED8D5F898008007F6D4A06AA8B102284E
:1009800024D00C2E7DD0286820F08070286000E0F4
:10099000B3E02868000103D4E86820F00300E860B1
:1009A000E86807490840E8600CE09FE0001002405A
:1009B000380D0008100000200800002000700040E2
:1009C000FFFFEEFEFFF74AFC044699E0E868E26AA2
:1009D00000F00301914226D1216B00F07002090161
:1009E000103991421FD1626B00F4FE41B1EB022F2E
:1009F00019D194F8382000F07841B1EBC26F12D1D0
:100A0000A18F00F4C00249084905A1F500119142E7
:100A100009D194F8401000F0C06049084906A1F1DE
:100A2000007181424BD00C2E6FD0286840016CD4ED
:100A3000286820F080702860FFF710FC064604E06C
:100A4000FFF70CFC801B022857D828688001F7D4D8
:100A5000F4E90B016FF00F0202EB01110843218A48
:100A60005204490802EB4151A26841EA02210843BD
:100A7000217D4FF07E42490802EB41610843217B12
:100A800000E042E040EAC160E968214A11400843C1
:100A9000E860286840F080702860E86840F0807066
:100AA000E860FFF7DBFB044605E000BFFFF7D6FB7D
:100AB000001B022821D828688001F7D523E0286888
:100AC000800120D4286840F080702860E86840F0F9
:100AD0008070E860FFF7C2FB044604E0FFF7BEFB4E
:100AE000001B022809D828688001F7D50BE000BF59
:100AF000FFF7B4FB001B022802D90320BDE8F883EE
:100B000028688001F4D40020F8E70120F6E700000F
:100B10008C809D0110B5401EB0F1807F01D3012073
:100B200010BD4FF0E02460610F21601700F09FF8C6
:100B30000020A06107202061002010BDFEE7FEE735
:100B4000FEE77047F8B51C4D06460024A86DC000AE
:100B500002D5FFF73FFC0DE0A86D40F08050A8657E
:100B6000A86D00F080500090FFF734FCA96D21F0D3
:100B70008051A965B0F5007F04D0802E07D94FF0D1
:100B800003040AE0802E08D9A02E01D804E001D188
:100B9000022402E0702E00D101240848016821F0EF
:100BA000070121430160006800F00700A04201D066
:100BB0000120F8BD0020F8BD0010024000200240D6
:100BC0007047FFF751BB10B596B044216846FFF758
:100BD00002FB142111A8FFF7FEFA10200090002458
:100BE0000120CDE90604602008900A946846FFF7CA
:100BF000DBFC08B172B6FEE70F20CDE911041394B7
:100C00001494002111A81594FFF7ECFB08B172B6FB
:100C1000FEE74FF40070FFF7A9FB002801D072B681
:100C2000FEE716B010BD00000D48016841F47001E8
:100C300001600C48016841F0010101600021816000
:100C40000268094B1A4002608214C260026822F4F2
:100C50008022026081610249C003803908607047C8
:100C600088ED00E000100240FFFFF6EAFEE709070A
:100C7000090E002804DB00F1E02080F80014704722
:100C800000F00F0000F1E02080F8141D704702E032
:100C900008C8121F08C1002AFAD170477047002007
:100CA00001E001C1121F002AFBD1704710B50028D6
:100CB00021D0114B0022001F196803E0814203D8A4
:100CC0000A4649680029F9D152B11368841A9C4236
:100CD00004D1006818441060104602E0506000E043
:100CE000186039B102680B1A934203D10B681A4499
:100CF00002604968416010BD1400002008B5FFF78C
:100D0000BBFAFFF760FF0648C16C41F00101C16406
:100D1000C06C00F001000090FFF77CFAFCE70000D7
:100D2000001002400268002A01DA491E02E08A42ED
:100D300001D10021016070470000000000000000A8
:100D40000102030406070809A0860100400D030004
:100D5000801A060000350C0040420F0080841E00FF
:100D600000093D0000127A000024F40000366E01F4
:100D70000048E801006CDC02980D0008000000202B
:100D8000180000008E0C0008B00D000818000020AC
:100D9000180500009E0C0008000000000100000083
:100DA000100000000000000000093D0000000000ED
:040000050800018D61
:00000001FF
