:020000040800F2
:10000000A8080020A5010008EB1D00084D1A0008F3
:10001000E91D0008B90200082525000800000000BD
:10002000000000000000000000000000E51F0008C4
:10003000BB02000800000000ED1D0008E91F0008D9
:10004000BF010008BF010008BF010008BF01000890
:10005000BF010008BF010008BF010008BF01000880
:10006000BF010008BF010008BF010008BF01000870
:10007000BF010008BF010008BF010008BF01000860
:10008000BF010008BF010008BF010008BF01000850
:10009000BF010008BF010008BF010008BF01000840
:1000A000BF010008BF010008BF010008BF01000830
:1000B000BF0100080000000000000000BF010008B0
:1000C000BF0100080000000000000000BF010008A0
:1000D00000000000FD240008BF010008000000002F
:1000E000BF010008BF010008000000000000000080
:1000F0000000000000000000000000000000000000
:10010000000000000000000000000000BF01000827
:100110000000000000000000BF010008BF0100084F
:10012000BF010008BF010008BF010008BF010008AF
:10013000BF010008000000000000000000000000F7
:10014000BF010008BF010008BF010008BF0100088F
:10015000BF010008BF010008BF010008BF0100087F
:10016000BF010008BF010008BF0100080000000037
:10017000BF010008BF0100080000000000000000EF
:10018000BF010008BF010008BF010008DFF810D060
:1001900000F080F8004800476D260008AFF30080AB
:1001A000A80800200648804706480047FEE7FEE70B
:1001B000FEE7FEE7FEE7FEE7FEE7FEE7FEE7FEE717
:1001C000CD2000088D0100082DE9F05F05460020D4
:1001D00092469B4688460646814640241BE02846B8
:1001E00041464746224600F044F853465A46C01A54
:1001F000914110D311461846224600F02BF82D1AD3
:1002000067EB01084F4622460120002100F022F84A
:1002100017EB00094E41201EA4F10104DFDC484623
:1002200031462A46434600F000B830BCBDE8C09FC6
:10023000D2B201E000F8012B491EFBD27047002228
:10024000F6E710B513460A4604461946FFF7F0FFD5
:10025000204610BD202A04DB203A00FA02F10020DB
:1002600070479140C2F1200320FA03F319439040F4
:100270007047202A04DB203A21FA02F0002170475F
:1002800021FA02F3D040C2F12002914008431946FE
:1002900070470000064C074D06E0E06840F001039F
:1002A00094E8070098471034AC42F6D3FFF772FF8A
:1002B000042C0008242C0008FEE770470A4810B5FB
:1002C000D0F88C0000280EDD074802F053FA074CE6
:1002D00020614068804720698168002903D1BDE81A
:1002E000104002F061B910BD88010020000000201C
:1002F00010B590F825100022022905D00421C16311
:1003000080F82420012010BD01680B6823F00E0343
:100310000B6001680B6823F001030B6090F8441038
:10032000046C01F01C03012101FA03F3636080F8FF
:10033000251080F82420104610BD10B590F8251027
:100340000024022903D00421C16301241AE00168BA
:100350000A6822F00E020A6001680A6822F00102AF
:100360000A6090F84410036C01F01C02012101FAAC
:1003700002F25A6080F82510002180F82410816B69
:1003800001B18847204610BD2DE9FC4FDFF880A160
:10039000002301250AF1040B03244FF00F0C0BF18D
:1003A000040EAEE005FA03F632406FD04F68012F1D
:1003B00005D0022F03D0112F01D0122F17D1D0F862
:1003C00008905F0004FA07F829EA08090097D1F8B5
:1003D0000C8008FA07F848EA0908C0F8088047685E
:1003E000B7430E79C6F300169E403E434660C6688A
:1003F0004FEA430804FA08F7BE4301978F6807FAEB
:1004000008F73743C7604E68022E01D0122E13D171
:10041000DE0800EB86060096366A5F07FF0E0CFAD0
:1004200007F926EA0906D1F8109009FA07F949EA0E
:100430000609009EC6F820900768019EB7430E7912
:1004400006F0030606FA08F63E4306604E68F6001C
:1004500056D5304E376E47F001073766366E23F0BB
:10046000030706F0010600962B4E3E44B146B668DF
:100470009F074FEA17780CFA08F7BE43B0F1904F88
:1004800005D0264FB84204D1012708E038E0002704
:1004900005E0234FB84201D1022700E0072707FA01
:1004A00008F73743C9F80870DAF800605746D1F802
:1004B000048096435FEAC83800D516433E60DBF8F7
:1004C00000605F46D1F8048096435FEA883800D523
:1004D00016433E60DEF800607746D1F8048096430C
:1004E0005FEAC82800D516433E60094F0C373E68C6
:1004F000D1F8048096435FEA882800D516433E6011
:100500005B1C0A6832FA03F67FF44CAF00F00AB8BD
:1005100000040140001002400000014000040048B7
:10052000000800481CBCBDE8E08F426921EA0203D4
:100530000A4043EA0241816170470AB18161704714
:100540008162704701488068704700001C000020ED
:1005500090F84120202A24D190F84020012A20D070
:10056000012280F84020242280F84120026813688C
:1005700023F0010313600268136823F480531360AF
:10058000026813680B43136001680A6842F00102B5
:100590000A60202180F84110002180F840100846B0
:1005A00070470220704790F84120202A22D190F80D
:1005B0004020012A1ED0012280F84020242280F809
:1005C00041200268136823F0010313600268136876
:1005D00023F4706343EA0121116001680A6842F064
:1005E00001020A60202180F84110002180F84010AB
:1005F000084670470220704770B5040004D094F894
:100600004100002510B106E0012070BD84F8405083
:10061000204600F079F9242084F841002068016820
:1006200021F0010101606068216820F070600861BC
:100630002068816821F400418160E0680128A06899
:1006400007D040F4044021688860E068022803D0A5
:1006500006E040F40040F6E721684FF4006048608F
:1006600020684168114A114341602068C16821F443
:100670000041C160D4E904010843A16940EA0120B6
:100680002168C860D4E90701084321680860206830
:10069000016841F0010101606564202084F8410097
:1006A000256384F84250002070BD000000800002E5
:1006B0002DE9F84F044690F84100DDF828A01F46C8
:1006C00090468B4620287ED194F8400001287AD0AD
:1006D000012084F84000FFF735FF06460122009014
:1006E0001923D103204601F01BFAE0BB222084F835
:1006F0004100102084F8420000256564C4F824807D
:1007000067856563618D3148FF274FF080784FF032
:100710000079FF2903D927853A46009039E0618D99
:10072000218500903AE05946204601F0E3F913E0B4
:1007300001F022FAB8B92068406A616A0870606AFC
:10074000401C6062208D401E80B22085618D491E54
:100750006185618D01B168B1608D324600285146D6
:100760002046E5D100E002E001F048FAD0B10120D6
:1007700000F030B85346002280212046009601F058
:10078000CFF90028F3D1608DFF2804D927853A4698
:1007900000954346C7E7608D2085009594F8282092
:1007A0004B46C0E721682020C86121684A68084B91
:1007B0001A404A6084F8410084F8425084F840505E
:1007C0000020D5E7FFE70220D2E7000000240080E8
:1007D00000E800FE18BCBDE8E08F00002DE9F84FEE
:1007E000044690F84100DDF828A01F4690468B464D
:1007F00020287ED194F8400001287AD0012084F886
:100800004000FFF79FFE0646012200901923D10306
:10081000204601F085F9E0BB212084F8410010203A
:1008200084F8420000256564C4F824806785656308
:10083000618D3148FF274FF080784FF00079FF2914
:1008400003D927853A46009039E0618D21850090D3
:100850003AE05946204601F04DF913E001F0F4F971
:10086000B8B9606A216800788862606A401C60627A
:10087000608D401E6085208D401E80B22085618D78
:1008800001B168B1608D3246002851462046E5D15D
:1008900000E002E001F0B2F9D0B1012000F030B880
:1008A0005346002280212046009601F039F90028A5
:1008B000F3D1608DFF2804D927853A460095434639
:1008C000C7E7608D2085009594F828204B46C0E747
:1008D00021682020C86121684A68084B1A404A6094
:1008E00084F8410084F8425084F840500020D5E755
:1008F000FFE70220D2E700000020008000E800FEB1
:1009000018BCBDE8E08F000010B586B00446142185
:100910006846FFF794FC13492068884220D1124CA6
:10092000E06C40F00100E064E06C694600F001001A
:1009300005904FF4C06000901220019001200290B9
:1009400003200390042004904FF09040FFF71CFD1B
:10095000A06D40F40010A065A06D00F4001005909B
:1009600006B010BD005400400010024002488168EB
:1009700002781144816070471C00002010B50024EB
:10098000032000F071F8002000F008F808B10124FD
:1009900001E000F025F8204610BD000070B50E4EB5
:1009A00005460024307898B14FF47A71B1FBF0F02D
:1009B0000A490968B1FBF0F000F0A6FD40B9102D1E
:1009C00006D200222946501E00F02EF8756000E085
:1009D0000124204670BD00001C00002028000020DB
:1009E000094808B5016E41F001010166016E01F090
:1009F00001010091816D41F080518165806D00F0B1
:100A00008050009008BD000000100240002809DB63
:100A100000F01F02012191404009800000F1E02018
:100A2000C0F8001170470000F0B40E4B1B680C4674
:100A3000C3F30223C3F10705042D00D90425191DB2
:100A4000072901D2002300E0DB1E012606FA05F18A
:100A5000491E214099409E40761E16403143F0BC0D
:100A600001F061BD0CED00E0064900F007020868E6
:100A70004FF6FF03184040EA0220034A1043086083
:100A8000704700000CED00E00000FA051649B0F5D3
:100A9000007F0868C0F3412009D0022805D008680B
:100AA00020F4C06040F48060086000207047012896
:100AB000FBD0086820F4C06040F4007008600B4868
:100AC0003222006850430A4AB0FBF2F0401C00E0BA
:100AD000401E4A69520501D50028F9D148694005F0
:100AE000E3D503207047000000700040280000207C
:100AF00040420F000248006800F4C06070470000E8
:100B0000007000402DE9F84F0446002700889C4DF6
:100B10003E46000515D5E06B60B1B0F5000F04D07E
:100B2000B0F5400F2BD001270AE0E86840F4803090
:100B3000E86024E00021201D01F06EF907001ED0BE
:100B40003E462068800338D5A86D4FF00008C000ED
:100B500009D4A86D40F08050A865A86D4FF0010839
:100B600000F080500090DFF81CA2DAF8001041F489
:100B70008071CAF80010FFF7E5FC814610E0D5F857
:100B80008800E16B20F440000843C5F88800D8E7EE
:100B9000FFF7D8FCA0EB0900022801D9032704E0E5
:100BA000DAF80000C005F3D5EFB33E46B8F1000F08
:100BB00003D0A86D20F08050A8652078C00707D02A
:100BC000D5F88800216A20F003000843C5F88800A2
:100BD0002078800707D5D5F88800616A20F00C00DE
:100BE0000843C5F888002078800607D5D5F8880026
:100BF000A16A20F440600843C5F888002088800579
:100C000007D5D5F88800616B20F440200843C5F86B
:100C100088002088400509D5D5F88800A16B20F40C
:100C20004010084300E02EE0C5F888002078400618
:100C300007D5D5F88800E16A20F440500843C5F88C
:100C400088002088C00507D5D5F88800216B20F4DE
:100C500040300843C5F8880020884FF000678004C2
:100C60004FF080684ED5D5F88800216C20F04060A8
:100C70000843C5F88800206CB8423BD1E86840F4CE
:100C80008010E8603EE0D5F8900010F4407014D079
:100C9000216D814211D0D5F89000D5F8901020F444
:100CA000407041F48031C5F89010D5F8901021F4CF
:100CB0008031C5F89010C5F89000C00711D0FFF73B
:100CC00041FC074641F2883907E000BFFFF73AFCD4
:100CD000C11B494501D9032668E7D5F89000800774
:100CE000F4D5D5F89000216D20F440700843C5F884
:100CF00090005BE7404505D10121201D01F08CF8F3
:100D000000B106462068400317D5D5F88800616C0D
:100D100020F040600843C5F88800606CB84204D1F8
:100D2000E86840F48010E86007E0404505D1012103
:100D3000201D01F071F800B106462088400411D54D
:100D4000D5F88800A16C20F040500843C5F8880011
:100D5000A06CB0F1805F05D10221201D01F05CF88C
:100D600000B106462088000406D555F8880FE16CCE
:100D700020F0804008432860304600F005B80000AD
:100D8000001002400070004018BCBDE8E08F000079
:100D90002DE9F0470F46050058D0404E306800F06E
:100DA0000700B84209D2306820F0070038433060AD
:100DB000306800F00700B84248D12878384CC007A6
:100DC0002CD06868032811D0022812D0216898B16D
:100DD000490500293ADAA16821F003010143A16025
:100DE000FFF7B0FB804641F2883910E021688901A5
:100DF000EFE721688903ECE78907EAE7FFF7A2FB41
:100E0000A0EB0801494502D90320BDE8F087A0689E
:100E1000696800F00C00B0EB810FEFD128788007F3
:100E200005D5A068A96820F0F0000843A0603068EC
:100E300000F00700B8420BD9306820F007003843B3
:100E40003060306800F00700B84201D00120DCE7D4
:100E50002878400705D5A068E96820F4E0600843D9
:100E6000A0602878000706D5A068296920F46050A2
:100E700040EAC100A06000F03FF8A168094AC1F350
:100E80000311515C01F01F01C84007490860074881
:100E90000068BDE8F047FFF781BD00000020024078
:100EA00000100240BC2B0008280000202000002079
:100EB0000548064900688968054AC1F30221515C6A
:100EC00001F01F01C84070472800002000100240B8
:100ED000FC2B00080548064900688968054AC1F3EB
:100EE000C221515C01F01F01C8407047280000205A
:100EF00000100240FC2B000870B52549002318465D
:100F00008A68CC6812F00C0204F00306214C4FEA08
:100F1000640509D00C2A05D0042A32D0082A00D151
:100F2000284670BD012E10D10B681B0704D4D1F8E0
:100F30009430C3F3032302E00B68C3F30313164E8C
:100F400056F82330DAB10C2AEBD1C86800F0030060
:100F5000022818D0032818D01846CA68CB68C2F3F4
:100F60000212C3F306234343521CB3FBF2F2C868D8
:100F7000C0F34160401C4000B2FBF0F070BD184669
:100F800070BD204670BD2046E7E72846E5E7000033
:100F9000001002400024F400CC2B00082DE9F84397
:100FA00004006FD0FE4DA86800F00C06E86800F061
:100FB00003072078C00664D576B10C2E01D1012F2D
:100FC0000AD0A069002828687AD040F00100286083
:100FD000FFF7B8FA80465DE02868800702D5A0696F
:100FE0000028DED0216A2868000703D5286800F0B1
:100FF000F00004E0D5F89400F02202EA10108142DB
:1010000016D9084600F09EFF00283BD1286840F022
:10101000080028602868216A20F0F0000843286052
:101020006868E16920F47F4040EA0120686016E0CA
:10103000286840F0080028602868216A20F0F00045
:10104000084328606868E16920F47F4040EA012095
:10105000686026B9206A00F075FF0028D5D1FFF737
:101060004BFFA968CF4AC1F30311515C01F01F0186
:10107000C840CD490860CD480068FFF78FFC0028C4
:101080007ED12EE0CAE000BFFFF75CFAA0EB0800BB
:10109000022876D828688007F6D5286840F008002E
:1010A00028602868216A20F0F000084328606868FA
:1010B000E16920F47F4040EA0120686011E0FFE729
:1010C00020F001002860FFF73DFA804606E000BFEF
:1010D000FFF738FAA0EB08000228DAD82868800762
:1010E000F6D42078C00740D0082E18D00C2E01D19D
:1010F000032F14D06068B0F5803F17D0B0F5A02F53
:10110000286817D020F480302860286820F48020D8
:1011100028606068E0B1FFF715FA804614E028689F
:10112000800322D56068002878D01EE0286840F44B
:101130008030EDE740F480202860F7E7FFF702FAFF
:10114000A0EB08006428A4D828688003F6D50CE03A
:10115000FFF7F8F9804605E0FFF7F4F9A0EB080087
:10116000642896D828688003F6D4207880073BD579
:10117000042E11D00C2E01D1022F0DD0E06801E019
:10118000B6E1FFE0002828681ED040F48070286097
:10119000FFF7D8F907460CE0286840050CD5E06851
:1011A0000028C1D008E000BFFFF7CCF9C01B02281F
:1011B00093D828684005F7D56868217C20F0F8505E
:1011C00040EA016068600FE020F480702860FFF75B
:1011D000B9F9074605E000BFFFF7B4F9C01B0228C4
:1011E000B1D828684005F7D42078000729D5606970
:1011F0000028D5F8940012D040F00100C5F8940002
:10120000FFF7A0F9074604E0FFF79CF9C01B02288E
:1012100099D8D5F894008007F6D512E02BE120F09C
:101220000100C5F89400FFF78DF9074605E000BFFF
:10123000FFF788F9C01B022885D8D5F894008007ED
:10124000F6D42078400766D5A86D0027C00008D4E2
:10125000A86D40F08050A865A86D012700F080506F
:10126000009053480168C90512D40168814641F4D1
:1012700080710160FFF766F9804605E0FFF762F9CB
:10128000A0EB080002287DD8D9F80000C005F5D5EC
:10129000A068012816D00528D5F8900017D020F0B6
:1012A0000100C5F89000D5F8900020F0040000BFC0
:1012B000C5F89000A06841F28839C0B1FFF742F943
:1012C00080460FE0D5F8900040F00100F0E740F0D4
:1012D0000400C5F89000F5E7FFF734F9A0EB08012A
:1012E00049454FD8D5F890008007F5D50EE0FFF7B7
:1012F00029F9804606E000BFFFF724F9A0EB0801BA
:1013000049453FD8D5F890008007F5D41FB1A86DA6
:1013100020F08050A8652078800628D5606A0028D3
:10132000D5F8980012D040F00100C5F89800FFF7FA
:1013300009F9074605E000BFFFF704F9C01B0228C2
:1013400020D8D5F898008007F6D510E020F00100ED
:10135000C5F89800FFF7F6F8074604E0FFF7F2F843
:10136000C01B02280ED8D5F898008007F6D4A06AD2
:10137000A8B1022824D00C2E7DD0286820F08070DF
:10138000286000E0B3E02868000103D4E86820F09A
:101390000300E860E86807490840E8600CE09FE067
:1013A00000100240BC2B0008280000202000002074
:1013B00000700040FFFFEEFEFFF7C4F8044699E01E
:1013C000E868E26A00F00301914226D1216B00F047
:1013D00070020901103991421FD1626B00F4FE4185
:1013E000B1EB022F19D194F8382000F07841B1EB1D
:1013F000C26F12D1A18F00F4C00249084905A1F5BE
:101400000011914209D194F8401000F0C0604908E1
:101410004906A1F1007181424BD00C2E6FD0286893
:1014200040016CD4286820F080702860FFF78AF8AB
:10143000064604E0FFF786F8801B022857D8286884
:101440008001F7D4F4E90B016FF00F0202EB0111F8
:101450000843218A5204490802EB4151A26841EA3B
:1014600002210843217D4FF07E42490802EB416191
:101470000843217B00E042E040EAC160E968214A7C
:1014800011400843E860286840F080702860E868F0
:1014900040F08070E860FFF755F8044605E000BFB3
:1014A000FFF750F8001B022821D828688001F7D5E3
:1014B00023E02868800120D4286840F080702860EC
:1014C000E86840F08070E860FFF73CF8044604E00C
:1014D000FFF738F8001B022809D828688001F7D5E3
:1014E0000BE000BFFFF72EF8001B022802D90320F3
:1014F000BDE8F88328688001F4D40020F8E70120D3
:10150000F6E700008C809D0110B5401EB0F1807F91
:1015100001D3012010BD4FF0E02460610F2160175E
:1015200001F001F80020A06107202061002010BD1B
:1015300070477047704700002DE9F041026804468B
:10154000D0691168936840F60F0528424FF00005F6
:1015500005D1860678D58E0676D5616EF3E0834F89
:1015600003F001060F4037437ED0C70709D0CF05EF
:1015700007D501271762D4F8802042F00102C4F891
:10158000802082070AD5DA0708D0276802223A624B
:10159000D4F8802042F00402C4F8802042070AD523
:1015A000DA0708D0236804221A62D4F8802042F0B7
:1015B0000202C4F8802002070CD501F02002324359
:1015C00008D0236808221A62D4F8802042F008026A
:1015D000C4F8802002050BD54A0109D523684FF4D1
:1015E00000621A62D4F8802042F02002C4F8802001
:1015F000D4F88020002A2FD0800605D5880603D590
:10160000616E09B120468847D4F880002168896856
:10161000490602D410F0280F20D0204600F014FE16
:1016200020688168490614D5816821F040018160F5
:10163000206F70B14E498163206FFEF77EFE002857
:101640000AD0206F816B01E00EE02046BDE8F0413A
:1016500008472046FFF76EFFBDE8F0812046FFF700
:1016600069FFC4F88050F7E7276E2026012F59D173
:10167000C70657D5CF0655D510201062226890684E
:1016800040062ED5216F086840680004000CE3D0A6
:10169000B4F858308342DFD9A4F85A0008680068CB
:1016A000800617D4106820F480701060206881686C
:1016B00021F0010181602068816821F04001816092
:1016C000E66725662068016821F010010160206F3F
:1016D000FEF70EFEB4F85800B4F85A10401A81B262
:1016E0001CE0B4F85800B4F85A10401A81B2B4F8AB
:1016F0005A000028B0D00029AED0106820F49070B5
:1017000010602068826822F001028260E667256628
:1017100065662068026822F0100202602046FFF72A
:1017200007FF99E7C70209D55B0207D54FF4801080
:1017300010622046BDE8F041FFF7FBBE030606D568
:101740000B0604D5A16E00297FF47FAF84E7400625
:1017500082D5480680D5106820F040001060A6674A
:101760002046A56600F071F976E70000200100042C
:101770003522000810B5040002D0A06F10B107E0B8
:10178000012010BD002084F87400204600F026F8E7
:101790002420A0672068016821F001010160204633
:1017A00000F06AFD0128ECD0606A10B1204600F01C
:1017B000AFFC2068416821F4904141602068816855
:1017C00021F02A0181602068016841F00101016077
:1017D0002046BDE8104000F0FFBC000070B586B0A8
:1017E000044614216846FEF72AFD264E256800218E
:1017F0002548022203230724B54223D1056E45F470
:1018000080450566056E05F480450595C56C45F077
:101810000205C564C06C02AD00F00200059085E8C9
:101820001A00C020CDE9000269461848FEF7ACFD59
:10183000002211462520FFF7F7F82520FFF7E6F8EC
:1018400006B070BD124EB542FAD1856D45F4003533
:101850008565856D05F400350595C56C45F0010578
:10186000C564C06C02AD00F00100059085E81A0067
:101870000C20CDE9000269464FF09040FEF784FD50
:10188000DEE700000038014000100240000400487C
:10189000004400402DE9F84F0446C06F9A461646B2
:1018A0000D46202870D10DB306B394F874000128BA
:1018B0006AD0012084F874004FF00008C4F88080DA
:1018C0002221E167C4F860805834FEF73BFE24F81B
:1018D000026B814624F852694FF4805354F808098A
:1018E000FF21984208D122691AB11CE0012000F0C2
:1018F0004DB840F2FF1116E07F2290B1B0F1805F49
:1019000014D0A4F85C8000BFB4F85C70984201D198
:10191000206990B12E46002584F8748007F0FF08F6
:1019200025E0266936B9A4F85C10EDE7216909B114
:101930003F21F8E7A4F85C20E6E70026ECE74B46F9
:10194000002220212046CDF800A000F085FD08B13E
:101950000320CCE72068808C8EB100EA080006F8EE
:10196000010B00BFB4F85A00401EA4F85A00B4F8A6
:101970005A000028E3D12020E0670020B7E7384074
:1019800025F8020BEEE7FFE70220B0E718BCBDE840
:10199000E08F00002DE9F8430446806F1F4616468D
:1019A0000D4620284FD1CDB1C6B194F8740001285E
:1019B00049D0012084F874004FF00008C4F88080FA
:1019C0002120A067FEF7BEFDA4F850608146A4F870
:1019D0005260A068B0F5805F03D004E00120BDE84C
:1019E000F883206928B12E465FF0000584F87480E2
:1019F00010E00026FAE78021204600F02DFDB8B95E
:101A0000C6B116F8010B21680885B4F85200401ED3
:101A1000A4F85200B4F852004B464FF00002009771
:101A20000028E8D14FF04001204600F015FD30B10C
:101A30000320D4E735F8020BC0F30800E3E72020C9
:101A4000A0670020CBE70220C9E77047FEE70168E6
:101A50008A69D243920701D400228A6200688169B0
:101A6000C943C90703D0816941F001018161704711
:101A70002DE9F0410446006890460E468069C04357
:101A8000C00633D40025202720688069C043800623
:101A900015D5701CF8D0FEF755FDA0EB0800B0423C
:101AA00001D8002EF0D154F8440F40F0200044F843
:101AB00004096770A57025700120BDE8F0812168D8
:101AC0001020C8612068C7612046FFF7C0FF54F8A6
:101AD000440B4168064A11404160206840F0040010
:101AE00044F820096777A5772577E5E70020E4E744
:101AF00000E800FEF0B50568059C68684FF4806654
:101B0000064FC1F3090106EA545641EA02413E4339
:101B10001943B043214308436860F0BDFF63FF03EE
:101B20002DE9F0411D4617460E460446DDF81880A3
:101B300008E0681C06D0FEF705FDA0EB0800A842EF
:101B40000BD855B12068806936EA000012D0002019
:101B5000B842EED00020BDE8F08154F8440F40F0C8
:101B6000200044F80409202060700020A07020703C
:101B70000120F0E70120EBE72DE9F0410026904637
:101B80000F460446202525E0424639462046FFF709
:101B90006FFF78BB20688069C043800613D420683B
:101BA0008169C943490701D4218DC1B9C56154F880
:101BB000440B4168104A1140416044F82069657740
:101BC000A677267716E0FEF7BDFCA0EB0800B8422A
:101BD00008D83FB120688069C0434007D4D40020B2
:101BE000BDE8F08154F8440F40F0200044F80409A7
:101BF000657026700120F3E700E800FE70B5164618
:101C00000D4604460DE0324629462046FFF730FFD8
:101C100008B1012070BDFEF795FC801BA84207D8D3
:101C200035B120688069C0438006ECD4002070BDC7
:101C300054F8440F40F0200044F80409202060705C
:101C40000020A0702070E4E770B516460D460446EB
:101C50000FE0324629462046FFF70AFF08B101206F
:101C600070BD681C05D0FEF76DFC801BA84207D82C
:101C700035B120688069C0438007EAD4002070BD78
:101C800054F8440F40F0200044F80409202060700C
:101C90000020A0702070E2E7F0B587B014216846FC
:101CA000FEF7CDFA1D48C16C41F00101C164C16C61
:101CB00001F001010591C16C41F00201C164C06CE9
:101CC0004FF0904600F002000590002201213046BE
:101CD000FEF733FC124F002208213846FEF72DFC98
:101CE000012500240095CDE901546946304603944E
:101CF000FEF74AFB0220CDE9000469463046029413
:101D0000FEF742FB08200090CDE9015469463846B1
:101D10000394FEF739FB07B0F0BD0000001002404D
:101D200000040048134810B51149016040F61461E1
:101D3000416000210122C0E902120161416181611B
:101D4000C1610162FEF758FC08B172B6FEE70021DE
:101D50000848FEF7FDFB08B172B6FEE70021054812
:101D6000FEF721FC002801D072B6FEE710BD00008E
:101D700000540040340000200C4810B50A490160AE
:101D80004FF4E1314160002181600C22C160C0E963
:101D900004128161C16101624162FFF7EBFC00281E
:101DA00001D072B6FEE710BD00380140800000206F
:101DB0000C4810B50A4901604FF4E131416000213F
:101DC00081600C22C160C0E904128161C1610162BD
:101DD0004162FFF7CFFC002801D072B6FEE710BDCC
:101DE0000044004004010020FEE7FEE770470000C9
:101DF00070B505460C460C2000F086FC456004706A
:101E00000146447000208860BDE87040014800F041
:101E1000C9BC0000880100202DE9F041444C054672
:101E20008846E0680026810728680DD0E16801F047
:101E30000301814216D1A8B1E0686968C0F30210BD
:101E4000401C88420ED120E0012804D0022805D091
:101E5000032807D108E02168890701E021684905C6
:101E6000002907DB01265FE02168890302D421688D
:101E70004903F5E7E1686A686FF00F0321F0730129
:101E800003EB021211430143E160206820F08060FF
:101E90002060FEF757FB074605E000BFFEF752FB48
:101EA000C01B022837D820680001F7D4B8F1000F12
:101EB00018D0B8F1010F1DD0287D4FF07E414008A9
:101EC00001EB4060A96840EA01202169194A1140EC
:101ED00008432061206840F080602060FEF732FBFC
:101EE00007461AE0A868297B000240EAC160216920
:101EF000114AECE7288A1149400801EB4050A968D3
:101F000040EA012021690E4AE1E700BFFEF71AFB13
:101F1000C01B022801D9032606E020680001F5D580
:101F20002069A969084320613046BDE8F0810000BE
:101F300000100240FF80FFF9FF80FF070000E0FF74
:101F4000FF809FFFF8B51C4D06460024A86DC00019
:101F500002D5FEF7CFFD0DE0A86D40F08050A865DA
:101F6000A86D00F080500090FEF7C4FDA96D21F02F
:101F70008051A965B0F5007F04D0802E07D94FF0BD
:101F800003040AE0802E08D9A02E01D804E001D174
:101F9000022402E0702E00D101240848016821F0DB
:101FA000070121430160006800F00700A04201D052
:101FB0000120F8BD0020F8BD0010024000200240C2
:101FC0000649096920B10870054800BF00F0EABB66
:101FD0004878087002489038F8E7000000000020B8
:101FE000180200207047000038B5164CD4F8800065
:101FF00000900CE054F820100878401E08700098FB
:10200000401C00906846D4F8881000F0CDFDD4F84C
:10201000841000988142EDD108E00A4800F0AAFB44
:10202000014640780870084800F0BCFB054800F005
:10203000E3FA007818B9D4F88C000028EDDCFEF73C
:1020400095FC38BD180200208801002010B5ACB006
:10205000442115A8FEF7F3F8142126A8FEF7EFF89F
:1020600054216846FEF7EBF810201590012000245B
:10207000CDE91B0460201D901F9415A8FEF78EFF6C
:1020800008B172B6FEE70F20CDE926042894299402
:10209000002126A82A94FEF77BFE08B172B6FEE75F
:1020A00043200090089409940B946846FEF72AFD9B
:1020B00008B172B6FEE74FF40070FEF7E7FC0028A7
:1020C00001D072B6FEE72CB010BD00000D480168CB
:1020D00041F4700101600C48016841F001010160A8
:1020E000002181600268094B1A4002608214C260BC
:1020F000026822F48022026081610249C0038039B3
:102100000860704788ED00E000100240FFFFF6EA2B
:1021100090F82410C90706D001684A68836A22F43F
:1021200000321A434A6090F82410890706D50168E6
:102130004A68C36A22F480321A434A6090F8241035
:10214000490706D501684A68036B22F480221A43C6
:102150004A6090F82410090706D501684A68436B65
:1021600022F400421A434A6090F82410C90606D5AA
:1021700001688A68836B22F480521A438A6090F85F
:102180002410890606D501688A68C36B22F40052C0
:102190001A438A6090F82410490611D501684A68EC
:1021A000036C22F480121A434A60016CB1F5801F5F
:1021B00006D101684A68436C22F4C0021A434A609F
:1021C00090F82410090606D501684A68806C22F44C
:1021D000002202434A607047F8B500260446C0F862
:1021E0008060FEF7AFF90546206800686FF07E4713
:1021F000000708D52B4600224FF400112046009717
:1022000000F02AF960B92068006840070AD52B461B
:1022100000224FF480012046009700F01DF908B11C
:102220000320F8BD2020A067E067266684F874606C
:102230000020F8BD10B5806A0021A0F85A10A0F85F
:102240005210FFF777F910BD01680A6822F4907206
:102250000A6001688A6822F001028A60016E012921
:1022600004D101680A6822F010020A602021C167C7
:1022700000210166416670472DE9F041044600687F
:102280002269A168E669114362690025324311435E
:102290006A4B02686A4E32400A4302602068416815
:1022A000E26821F44051114341602168A0699942DC
:1022B00001D0226A10438A6822F4306202438A60A5
:1022C0006049276860488F420DD1D0F8880010F02F
:1022D000030006D0012838D0022834D0032821D1A9
:1022E00035E001211FE059498F420BD1D0F8880019
:1022F00010F00C0025D0042827D0082823D00C2863
:1023000010D124E09F420DD1D0F8880010F4406035
:1023100017D0B0F5806F18D0B0F5006F13D0B0F5BE
:10232000406F14D010214A4800264FF400429F42CB
:102330002DD171B1022912D004290DD0082971D1F3
:1023400023E00021EFE70221EDE70421EBE708217C
:10235000E9E7FEF7ADFD01E0FEF7CEFDE8B3626808
:1023600002EB420181425DD8B0EB023F5AD8010E28
:1023700003025008181871410023FDF725FF354A64
:10238000A0F54071914251D94CE01046E7E7E3696E
:102390004FF6EF77934229D1092943D2DFE801F0C4
:1023A00005080E420B4242422400FEF781FD04E084
:1023B000FEF790FD01E0FEF79FFD70B141006068FF
:1023C00001EB5001B1FBF0F080B2A0F11001B94275
:1023D00028D84FF6F071014000E029E0C0F3420038
:1023E00001432068C16023E01046E7E7092919D2BC
:1023F000DFE801F005080E180B1818181A00FEF790
:1024000057FD04E0FEF766FD01E0FEF775FD78B1CB
:10241000616800EB5100B0FBF1F080B2A0F1100157
:10242000B94203D9012503E01046F1E72168C860ED
:1024300066662846A666BDE8F08100000080004080
:10244000F369FFEF003801400010024000440040F3
:102450000024F400FFFC0F002DE9F0479A461746D0
:102460000E4604464FF000094FF02008089D39E061
:10247000681C37D0FEF766F8A0EB0A00A84222D805
:102480000DB32068016849072CD5C069C043000519
:1024900028D421684FF4006008622068016821F4A4
:1024A000D07101602068816821F001018160C4F869
:1024B0007880C4F87C80C4F8808000BF84F8749071
:1024C0000320BDE8F0872068016821F4D071016025
:1024D0002068816821F001018160C4F87880C4F827
:1024E0007C80EBE72068C06936EA000004D0002059
:1024F000B842BDD00020E4E70120F9E710B5012182
:102500000648FFF775FC06480068016821F02001C5
:102510000160BDE810400248FFF70EB82529000809
:1025200080000020FEE70907090E002804DB00F107
:10253000E02080F80014704700F00F0000F1E02068
:1025400080F8141D704702E008C8121F08C1002A55
:10255000FAD170477047002001E001C1121F002A24
:10256000FBD1704710B502780B789A4201D1012255
:1025700000E0002243784C78A34201D1012300E01F
:102580000023134042684C68A24201D1012200E0BE
:102590000022806889681A40884201D1012000E049
:1025A0000020104010BD000010B5002821D0114BB4
:1025B0000022001F196803E0814203D80A464968D7
:1025C0000029F9D152B11368841A9C4204D10068E1
:1025D00018441060104602E0506000E0186039B105
:1025E00002680B1A934203D10B681A4402604968CF
:1025F000416010BD2C000020D0F8801050F8210060
:10260000704708B50346D0F88400401E0090684625
:10261000D3F8881000F0C8FA009853F8200008BDDD
:1026200010B5084800F012F80648903000F00EF897
:10263000054814210068BDE81040B0FBF1F0FEF73A
:1026400063BF00008801002028000020002140F81E
:10265000801F2022C0E90112C160704700220821BA
:102660000148FDF76ABF000000040048FEF786F944
:10267000FFF7ECFCFFF710FBFFF79AFBFFF752FBAD
:10268000FFF77AFBFFF7CCFF4FF0FF34234613220E
:102690000FA11448FFF77EF900F0D0F92346162267
:1026A00011A11048FFF776F90E48843800680168D8
:1026B00041F02001016002211148FFF799FB03213D
:1026C0001048FFF795FB00BFFDF7F8FDFCE70000A1
:1026D000556E6974207465737473207374617274B9
:1026E0000A0D000004010020556E697420746573A2
:1026F000747320636F6D706C6574650A0D00000063
:1027000029280008092A0008F0B50B30154D20F0E3
:1027100007010024144A0FE003688B420BD38B425D
:1027200005D95E1A43184768C3E9006700E04368AB
:10273000136002C004E0021D10680028ECD120469E
:10274000002802D1286808B10020F0BD064A0748D9
:102750001060074A121A22F00702C0E90024012083
:102760002860D7E7300000202C000020AC020020B9
:10277000A804002010B50346D0F880008100401C5A
:10278000C3F880005C58A068401EA06003F1800080
:10279000D3F8881000F008FA53F88C0F401E186028
:1027A000204610BD1CB504468868401C8860D4F8DB
:1027B000840044F82010D4F88C00401CC4F88C002D
:1027C000D4F884000090D4F88000009988421FD08B
:1027D0006846D4F8881000F0E7F90098401E019090
:1027E00001A8D4F8881000F0DFF9009854F8201000
:1027F0000A78019954F821301B789A4208D204EBE8
:10280000810104EB800000F0F3F80098401ED9E746
:10281000D4F88400401CC4F8840004F18400D4F887
:10282000881000F0C1F91CBD30B587B036A10A246C
:10283000D1E90001CDE9020135A00223006804902E
:1028400004AAD02100943348FDF7C8FF32A0012329
:1028500000680094059005AAD0212E48FDF7BEFF20
:10286000012301AAD1212B480094FDF721FF9DF8F7
:1028700004002A4D80000123688029A006AA006870
:102880000690D02100942348FDF7A8FF012301AA58
:10289000D12120480094FDF70BFF68889DF80410B3
:1028A0004FF0FF3340EA91106880C0B2810891FB7D
:1028B000F4F230328DF8082091FBF4F204FB12118F
:1028C0008DF8040030318DF8091000F0030000EBA2
:1028D000C00101EB001090FBF4F130318DF80B10CA
:1028E00090FBF4F104FB110030308DF80C00094826
:1028F000072202A9D030FFF74DF84FF41670FFF70A
:102900005FFB07B030BD000000002E00000A0D0084
:102910000E3C0000340000201100000000000020E8
:1029200012000000F8B52F4D0A23A5F1140401226E
:10293000A06829182C48FEF7ADFFA0680A232918C3
:1029400001222948FFF726F8274E3068016841F038
:1029500020010160A068295C0D2902D0401CA06004
:10296000F8BD3068016821F0200101600A230322CC
:102970001EA11D48FFF70EF83068016841F02001E4
:10298000016000210091A0680122401EA06008E0C3
:10299000009E303B02FB036302EB82025200401EAA
:1029A00000932B5C2E2BF3D1009A192392FBF3F2A8
:1029B000D3B223700122401E0091A06009E02E5C7A
:1029C000009F303E02FB067602EB82025200401E60
:1029D00000960028F3DA009803EB80002070A160D5
:1029E000F8BD000014000020800000200A0D000047
:1029F00002680B6803600A60704700000821014804
:102A0000FDF793BD000400480A4810B5B0F9021064
:102A100002780948914203DD0821FDF786FD03E0B5
:102A200000220821FDF789FDBDE810400520FFF7D1
:102A3000C7BA00000000002000040048F0B5ADB0A7
:102A40004FF0FF302C9020212CA800F0ADF82C98EE
:102A50001F287CD1202001462C902CA800F0A4F83F
:102A60002C98002873D108A8FFF7F0FD28980028BB
:102A70006DD1299800286AD12A98202867D12B98EF
:102A8000002864D101254548CDE906058DF814508C
:102A900005A98DF815500846FFF764FD002878D089
:102AA00005A908A8FFF77EFE08A8FFF7AAFD0146C2
:102AB00005A8FFF757FD00286BD0289908A850F803
:102AC000211005A8FFF74EFD002862D008A8FFF7E7
:102AD00051FE014605A8FFF745FD002859D005AB7A
:102AE000022693E8070001AB83E807008DF8056034
:102AF0000C20FFF709FE07460C20FFF705FE05AB8B
:102B0000044693E8070087E8070001AB93E8070055
:102B100084E80700394605A8FFF724FDB8B121462F
:102B200001A8FFF71FFD90B101211C48FFF760F9D4
:102B30001B48FFF766FD014605A8FFF713FD30B1FE
:102B40001748D0F8801050F8211005A800E020E0C8
:102B5000FFF708FDE8B102211248FFF749F91048D4
:102B6000D0F8801050F8211005A8FFF7FBFC80B1C9
:102B70000C48CDE906050A488DF814608DF81560FB
:102B8000D0F8801050F8211005A8FFF7EBFC0028C2
:102B900001D1AFF300802DB0F0BD0000FD29000889
:102BA000880100205D2600080268002A01DA491E1B
:102BB00002E08A4201D1002101607047000000005C
:102BC000000000000102030406070809A0860100B6
:102BD000400D0300801A060000350C0040420F0033
:102BE00080841E0000093D0000127A000024F400D9
:102BF00000366E010048E801006CDC0200000000B5
:102C000001020304242C000800000020340000000E
:102C100046250008582C00083400002074080000E5
:102C20005625000800000000000000000000000021
:102C30000000000000000000000000000000000094
:102C400001000000100000000000000000093D002D
:082C500000000000000000007C
:040000050800018D61
:00000001FF
