:020000040800F2
:10000000C0070020A50100081F120008E311000826
:100010001D120008B9020008E518000800000000E1
:100020000000000000000000000000001D14000897
:10003000BB02000800000000211200082114000883
:10004000BF010008BF010008BF010008BF01000890
:10005000BF010008BF010008BF010008BF01000880
:10006000BF010008BF010008BF010008BF01000870
:10007000BF010008BF010008BF010008BF01000860
:10008000BF010008BF010008BF010008BF01000850
:10009000BF010008BF010008BF010008BF01000840
:1000A000BF010008BF010008BF010008BF01000830
:1000B000BF0100080000000000000000BF010008B0
:1000C000BF0100080000000000000000BF010008A0
:1000D00000000000BF010008BF0100080000000090
:1000E000BF010008BF010008000000000000000080
:1000F0000000000000000000000000000000000000
:10010000000000000000000000000000BF01000827
:100110000000000000000000BF010008BF0100084F
:10012000BF010008BF010008BF010008BF010008AF
:10013000BF010008000000000000000000000000F7
:10014000BF010008BF010008BF010008BF0100088F
:10015000BF010008BF010008BF010008BF0100087F
:10016000BF010008BF010008BF0100080000000037
:10017000BF010008BF0100080000000000000000EF
:10018000BF010008BF010008BF010008DFF810D060
:1001900000F080F80048004775190008AFF30080B0
:1001A000C00700200648804706480047FEE7FEE7F4
:1001B000FEE7FEE7FEE7FEE7FEE7FEE7FEE7FEE717
:1001C000F91400088D0100082DE9F05F05460020B4
:1001D00092469B4688460646814640241BE02846B8
:1001E00041464746224600F044F853465A46C01A54
:1001F000914110D311461846224600F02BF82D1AD3
:1002000067EB01084F4622460120002100F022F84A
:1002100017EB00094E41201EA4F10104DFDC484623
:1002200031462A46434600F000B830BCBDE8C09FC6
:10023000D2B201E000F8012B491EFBD27047002228
:10024000F6E710B513460A4604461946FFF7F0FFD5
:10025000204610BD202A04DB203A00FA02F10020DB
:1002600070479140C2F1200320FA03F319439040F4
:100270007047202A04DB203A21FA02F0002170475F
:1002800021FA02F3D040C2F12002914008431946FE
:1002900070470000064C074D06E0E06840F001039F
:1002A00094E8070098471034AC42F6D3FFF772FF8A
:1002B000EC1B00080C1C0008FEE770470A4810B54C
:1002C000D0F88C0000280EDD074801F0CBFB074C6E
:1002D00060604068804760688168002903D1BDE89C
:1002E000104001F01FBB10BDA00000200000002046
:1002F0002DE9FC4FDFF880A1002301250AF1040B52
:1003000003244FF00F0C0BF1040EAEE005FA03F6D8
:1003100032406FD04F68012F05D0022F03D0112F2C
:1003200001D0122F17D1D0F808905F0004FA07F817
:1003300029EA08090097D1F80C8008FA07F848EA7A
:100340000908C0F808804768B7430E79C6F300165D
:100350009E403E434660C6684FEA430804FA08F7E9
:10036000BE4301978F6807FA08F73743C7604E68A6
:10037000022E01D0122E13D1DE0800EB8606009665
:10038000366A5F07FF0E0CFA07F926EA0906D1F86C
:10039000109009FA07F949EA0609009EC6F820906C
:1003A0000768019EB7430E7906F0030606FA08F6C1
:1003B0003E4306604E68F60056D5304E376E47F025
:1003C00001073766366E23F0030706F00106009634
:1003D0002B4E3E44B146B6689F074FEA17780CFA99
:1003E00008F7BE43B0F1904F05D0264FB84204D174
:1003F000012708E038E0002705E0234FB84201D18B
:10040000022700E0072707FA08F73743C9F8087002
:10041000DAF800605746D1F8048096435FEAC8389E
:1004200000D516433E60DBF800605F46D1F80480DB
:1004300096435FEA883800D516433E60DEF80060D8
:100440007746D1F8048096435FEAC82800D5164362
:100450003E60094F0C373E68D1F8048096435FEA4E
:10046000882800D516433E605B1C0A6832FA03F602
:100470007FF44CAF00F00AB80004014000100240C5
:100480000000014000040048000800481CBCBDE812
:10049000E08F426921EA02030A4043EA0241816196
:1004A00070470AB181617047816270470148806876
:1004B000704700000800002002488168027811445B
:1004C000816070470800002010B50024032000F070
:1004D00063F8002000F008F808B1012401E000F002
:1004E00025F8204610BD000070B50E4E05460024CC
:1004F000307898B14FF47A71B1FBF0F00A4909688D
:10050000B1FBF0F000F098FD40B9102D06D20022AA
:100510002946501E00F020F8756000E001242046B6
:1005200070BD00000800002014000020094808B534
:10053000016E41F001010166016E01F001010091BF
:10054000816D41F080518165806D00F08050009098
:1005500008BD000000100240F0B40E4B1B680C46B2
:10056000C3F30223C3F10705042D00D90425191D87
:10057000072901D2002300E0DB1E012606FA05F15F
:10058000491E214099409E40761E16403143F0BCE2
:1005900001F0A9B90CED00E0064900F00702086877
:1005A0004FF6FF03184040EA0220034A1043086058
:1005B000704700000CED00E00000FA051649B0F5A8
:1005C000007F0868C0F3412009D0022805D00868E0
:1005D00020F4C06040F4806008600020704701286B
:1005E000FBD0086820F4C06040F4007008600B483D
:1005F0003222006850430A4AB0FBF2F0401C00E08F
:10060000401E4A69520501D50028F9D148694005C4
:10061000E3D5032070470000007000401400002064
:1006200040420F000248006800F4C06070470000BC
:10063000007000402DE9F84F0446002700889C4DCB
:100640003E46000515D5E06B60B1B0F5000F04D053
:10065000B0F5400F2BD001270AE0E86840F4803065
:10066000E86024E00021201D00F0F0FD07001ED00E
:100670003E462068800338D5A86D4FF00008C000C2
:1006800009D4A86D40F08050A865A86D4FF001080E
:1006900000F080500090DFF81CA2DAF8001041F45E
:1006A0008071CAF80010FFF701FF814610E0D5F80D
:1006B0008800E16B20F440000843C5F88800D8E7C3
:1006C000FFF7F4FEA0EB0900022801D9032704E09C
:1006D000DAF80000C005F3D5EFB33E46B8F1000FDD
:1006E00003D0A86D20F08050A8652078C00707D0FF
:1006F000D5F88800216A20F003000843C5F8880077
:100700002078800707D5D5F88800616A20F00C00B2
:100710000843C5F888002078800607D5D5F88800FA
:10072000A16A20F440600843C5F88800208880054D
:1007300007D5D5F88800616B20F440200843C5F840
:1007400088002088400509D5D5F88800A16B20F4E1
:100750004010084300E02EE0C5F8880020784006ED
:1007600007D5D5F88800E16A20F440500843C5F861
:1007700088002088C00507D5D5F88800216B20F4B3
:1007800040300843C5F8880020884FF00067800497
:100790004FF080684ED5D5F88800216C20F040607D
:1007A0000843C5F88800206CB8423BD1E86840F4A3
:1007B0008010E8603EE0D5F8900010F4407014D04E
:1007C000216D814211D0D5F89000D5F8901020F419
:1007D000407041F48031C5F89010D5F8901021F4A4
:1007E0008031C5F89010C5F89000C00711D0FFF710
:1007F0005DFE074641F2883907E000BFFFF756FE6D
:10080000C11B494501D9032668E7D5F89000800748
:10081000F4D5D5F89000216D20F440700843C5F858
:1008200090005BE7404505D10121201D00F00EFD41
:1008300000B106462068400317D5D5F88800616CE2
:1008400020F040600843C5F88800606CB84204D1CD
:10085000E86840F48010E86007E0404505D10121D8
:10086000201D00F0F3FC00B106462088400411D59D
:10087000D5F88800A16C20F040500843C5F88800E6
:10088000A06CB0F1805F05D10221201D00F0DEFCDC
:1008900000B106462088000406D555F8880FE16CA3
:1008A00020F0804008432860304600F005B8000082
:1008B000001002400070004018BCBDE8E08F00004E
:1008C0002DE9F0470F46050058D0404E306800F043
:1008D0000700B84209D2306820F007003843306082
:1008E000306800F00700B84248D12878384CC0077B
:1008F0002CD06868032811D0022812D0216898B142
:10090000490500293ADAA16821F003010143A160F9
:10091000FFF7CCFD804641F2883910E0216889015B
:10092000EFE721688903ECE78907EAE7FFF7BEFDF7
:10093000A0EB0801494502D90320BDE8F087A06873
:10094000696800F00C00B0EB810FEFD128788007C8
:1009500005D5A068A96820F0F0000843A0603068C1
:1009600000F00700B8420BD9306820F00700384388
:100970003060306800F00700B84201D00120DCE7A9
:100980002878400705D5A068E96820F4E0600843AE
:10099000A0602878000706D5A068296920F4605077
:1009A00040EAC100A06000F03FF8A168094AC1F325
:1009B0000311515C01F01F01C84007490860074856
:1009C0000068BDE8F047FFF78FBD0000002002403F
:1009D00000100240A41B0008140000200C0000209E
:1009E0000548064900688968054AC1F30221515C3F
:1009F00001F01F01C84070471400002000100240A1
:100A0000E41B00080548064900688968054AC1F3E7
:100A1000C221515C01F01F01C84070471400002042
:100A200000100240E41B000870B525490023184659
:100A30008A68CC6812F00C0204F00306214C4FEADD
:100A4000640509D00C2A05D0042A32D0082A00D126
:100A5000284670BD012E10D10B681B0704D4D1F8B5
:100A60009430C3F3032302E00B68C3F30313164E61
:100A700056F82330DAB10C2AEBD1C86800F0030035
:100A8000022818D0032818D01846CA68CB68C2F3C9
:100A90000212C3F306234343521CB3FBF2F2C868AD
:100AA000C0F34160401C4000B2FBF0F070BD18463E
:100AB00070BD204670BD2046E7E72846E5E7000008
:100AC000001002400024F400B41B00082DE9F84394
:100AD00004006FD0FE4DA86800F00C06E86800F036
:100AE00003072078C00664D576B10C2E01D1012F02
:100AF0000AD0A069002828687AD040F00100286058
:100B0000FFF7D4FC80465DE02868800702D5A06925
:100B10000028DED0216A2868000703D5286800F085
:100B2000F00004E0D5F89400F02202EA10108142AF
:100B300016D9084600F020FC00283BD1286840F078
:100B4000080028602868216A20F0F0000843286027
:100B50006868E16920F47F4040EA0120686016E09F
:100B6000286840F0080028602868216A20F0F0001A
:100B7000084328606868E16920F47F4040EA01206A
:100B8000686026B9206A00F0F7FB0028D5D1FFF78E
:100B90004BFFA968CF4AC1F30311515C01F01F015B
:100BA000C840CD490860CD480068FFF79DFC00288B
:100BB0007ED12EE0CAE000BFFFF778FCA0EB080072
:100BC000022876D828688007F6D5286840F0080003
:100BD00028602868216A20F0F000084328606868CF
:100BE000E16920F47F4040EA0120686011E0FFE7FE
:100BF00020F001002860FFF759FC804606E000BFA6
:100C0000FFF754FCA0EB08000228DAD82868800718
:100C1000F6D42078C00740D0082E18D00C2E01D171
:100C2000032F14D06068B0F5803F17D0B0F5A02F27
:100C3000286817D020F480302860286820F48020AD
:100C400028606068E0B1FFF731FC804614E0286856
:100C5000800322D56068002878D01EE0286840F420
:100C60008030EDE740F480202860F7E7FFF71EFCB6
:100C7000A0EB08006428A4D828688003F6D50CE00F
:100C8000FFF714FC804605E0FFF710FCA0EB08001E
:100C9000642896D828688003F6D4207880073BD54E
:100CA000042E11D00C2E01D1022F0DD0E06801E0EE
:100CB000B6E1FFE0002828681ED040F4807028606C
:100CC000FFF7F4FB07460CE0286840050CD5E06808
:100CD0000028C1D008E000BFFFF7E8FBC01B0228D6
:100CE00093D828684005F7D56868217C20F0FE403D
:100CF00040EA016068600FE020F480702860FFF730
:100D0000D5FB074605E000BFFFF7D0FBC01B02285C
:100D1000B1D828684005F7D42078000729D5606944
:100D20000028D5F8940012D040F00100C5F89400D6
:100D3000FFF7BCFB074604E0FFF7B8FBC01B022827
:100D400099D8D5F894008007F6D512E02BE120F071
:100D50000100C5F89400FFF7A9FB074605E000BFB6
:100D6000FFF7A4FBC01B022885D8D5F894008007A4
:100D7000F6D42078400766D5A86D0027C00008D4B7
:100D8000A86D40F08050A865A86D012700F0805044
:100D9000009053480168C90512D40168814641F4A6
:100DA00080710160FFF782FB804605E0FFF77EFB64
:100DB000A0EB080002287DD8D9F80000C005F5D5C1
:100DC000A068012816D00528D5F8900017D020F08B
:100DD0000100C5F89000D5F8900020F0040000BF95
:100DE000C5F89000A06841F28839C0B1FFF75EFBFA
:100DF00080460FE0D5F8900040F00100F0E740F0A9
:100E00000400C5F89000F5E7FFF750FBA0EB0801E0
:100E100049454FD8D5F890008007F5D50EE0FFF78B
:100E200045FB804606E000BFFFF740FBA0EB080152
:100E300049453FD8D5F890008007F5D41FB1A86D7B
:100E400020F08050A8652078800628D5606A0028A8
:100E5000D5F8980012D040F00100C5F89800FFF7CF
:100E600025FB074605E000BFFFF720FBC01B02285B
:100E700020D8D5F898008007F6D510E020F00100C2
:100E8000C5F89800FFF712FB074604E0FFF70EFBDA
:100E9000C01B02280ED8D5F898008007F6D4A06AA7
:100EA000A8B1022824D00C2E7DD0286820F08070B4
:100EB000286000E0B3E02868000103D4E86820F06F
:100EC0000300E860E86807490840E8600CE09FE03C
:100ED00000100240A41B0008140000200C00002099
:100EE00000700040FFFFEEFEFFF7E0FA044699E0D5
:100EF000E868E26A00F00301914226D1216B00F01C
:100F000070020901103991421FD1626B00F4FE4159
:100F1000B1EB022F19D194F8382000F07841B1EBF1
:100F2000C26F12D1A18F00F4C00249084905A1F592
:100F30000011914209D194F8401000F0C0604908B6
:100F40004906A1F1007181424BD00C2E6FD0286868
:100F500040016CD4286820F080702860FFF7A6FA62
:100F6000064604E0FFF7A2FA801B022857D828683B
:100F70008001F7D4F4E90B016FF00F0202EB0111CD
:100F80000843218A5204490802EB4151A26841EA10
:100F900002210843217D4FF07E42490802EB416166
:100FA0000843217B00E042E040EAC160E968214A51
:100FB00011400843E860286840F080702860E868C5
:100FC00040F08070E860FFF771FA044605E000BF6A
:100FD000FFF76CFA001B022821D828688001F7D59A
:100FE00023E02868800120D4286840F080702860C1
:100FF000E86840F08070E860FFF758FA044604E0C3
:10100000FFF754FA001B022809D828688001F7D599
:101010000BE000BFFFF74AFA001B022802D90320A9
:10102000BDE8F88328688001F4D40020F8E70120A7
:10103000F6E700008C809D0110B5401EB0F1807F66
:1010400001D3012010BD4FF0E02460610F21601733
:1010500000F049FC0020A06107202061002010BDA5
:1010600010B5040002D0606F10B107E0012010BD80
:10107000002084F87000204600F026F824206067E5
:101080002068016821F001010160204600F0E6FAC5
:101090000128ECD0606A10B1204600F04FFA2068B9
:1010A000416821F4904141602068816821F02A0163
:1010B00081602068016841F0010101602046BDE8BF
:1010C000104000F09FBA000010B586B0044614210D
:1010D0006846FFF7B4F81349206888421FD11248C8
:1010E000816D41F400318165816D01F4003105911C
:1010F000C16C41F00101C164C06C694600F001009F
:1011000005900C2000900220019000200290032006
:101110000390072004904FF09040FFF7E9F806B0E5
:1011200010BD000000440040001002402DE9F843CB
:101130000446406F1F4616460D4620284FD1CDB1BC
:10114000C6B194F87000012849D0012084F87000DD
:101150004FF00008C4F87C8021206067FFF7A6F9F3
:10116000A4F850608146A4F85260A068B0F5805F92
:1011700003D004E00120BDE8F883206928B12E46A1
:101180005FF0000584F8708010E00026FAE7802107
:10119000204600F055FBB8B9C6B116F8010B21681E
:1011A0000885B4F85200401EA4F85200B4F852006A
:1011B0004B464FF0000200970028E8D14FF0400165
:1011C000204600F03DFB30B10320D4E735F8020B98
:1011D000C0F30800E3E7202060670020CBE702208F
:1011E000C9E7FEE70C4810B50A4901604FF4E13148
:1011F0004160002181600C22C160C0E9041281615C
:10120000C16101624162FFF72BFF002801D072B675
:10121000FEE710BD0044004020000020FEE7FEE78E
:101220007047000070B505460C460C2000F0E4FB4A
:10123000456004700146447000208860BDE870403D
:10124000014800F027BC0000A00000202DE9F0417B
:10125000444C05468846E0680026810728680DD082
:10126000E16801F00301814216D1A8B1E068696824
:10127000C0F30210401C88420ED120E0012804D0A7
:10128000022805D0032807D108E02168890701E07A
:1012900021684905002907DB01265FE021688903F1
:1012A00002D421684903F5E7E1686A686FF00F032B
:1012B00021F0730103EB021211430143E160206846
:1012C00020F080602060FFF7F1F8074605E000BFDE
:1012D000FFF7ECF8C01B022837D820680001F7D4CC
:1012E000B8F1000F18D0B8F1010F1DD0287D4FF0D4
:1012F0007E41400801EB4060A96840EA0120216975
:10130000194A114008432061206840F08060206045
:10131000FFF7CCF807461AE0A868297B000240EAEC
:10132000C1602169114AECE7288A1149400801EBA4
:101330004050A96840EA012021690E4AE1E700BF58
:10134000FFF7B4F8C01B022801D9032606E0206885
:101350000001F5D52069A969084320613046BDE840
:10136000F081000000100240FF80FFF9FF80FF07BE
:101370000000E0FFFF809FFFF8B51C4D06460024EB
:10138000A86DC00002D5FFF74DF90DE0A86D40F043
:101390008050A865A86D00F080500090FFF742F9DA
:1013A000A96D21F08051A965B0F5007F04D0802E91
:1013B00007D94FF003040AE0802E08D9A02E01D8E7
:1013C00004E001D1022402E0702E00D1012408487B
:1013D000016821F0070121430160006800F0070067
:1013E000A04201D00120F8BD0020F8BD001002404D
:1013F00000200240074949688A68521C8A6018B177
:101400000870054800F046BB4878087002489038DC
:10141000F8E70000000000203001002070470000C5
:1014200038B5144CD4F880000090D4F88420411EC4
:101430008A4215D054F820100878401E087068467B
:10144000D4F8881000F0A4FB0098401CECE7094891
:1014500000F008FB014640780870074800F01AFBCE
:10146000D4F8800054F8200000780028EFD0FFF76F
:1014700023F838BD30010020A000002010B5ACB02A
:10148000442115A8FEF7DBFE142126A8FEF7D7FE9F
:1014900054216846FEF7D3FE102015900120002449
:1014A000CDE91B0460201D901F9415A8FFF70EFBCB
:1014B00008B172B6FEE70F20CDE9260428942994DE
:1014C000002126A82A94FFF7FBF908B172B6FEE7BF
:1014D0000220009009946846FFF7ACF808B172B694
:1014E000FEE74FF40070FFF769F8002801D072B6EC
:1014F000FEE72CB010BD00000D48016841F47001FA
:1015000001600C48016841F0010101600021816027
:101510000268094B1A4002608214C260026822F419
:101520008022026081610249C003803908607047EF
:1015300088ED00E000100240FFFFF6EA90F824106A
:10154000C90706D001684A68836A22F400321A4348
:101550004A6090F82410890706D501684A68C36A72
:1015600022F480321A434A6090F82410490706D5C5
:1015700001684A68036B22F480221A434A6090F89B
:101580002410090706D501684A68436B22F400421B
:101590001A434A6090F82410C90606D501688A6883
:1015A000836B22F480521A438A6090F824108906D3
:1015B00006D501688A68C36B22F400521A438A6018
:1015C00090F82410490611D501684A68036C22F48A
:1015D00080121A434A60016CB1F5801F06D1016880
:1015E0004A68436C22F4C0021A434A6090F82410FF
:1015F000090606D501684A68806C22F4002202437D
:101600004A607047F8B500260446C667FEF74EFFED
:101610000546206800686FF07E47000708D52B4616
:1016200000224FF400112046009700F009F960B93C
:101630002068006840070AD52B4600224FF480013D
:101640002046009700F0FCF808B10320F8BD2020E8
:101650006067A06784F870600020F8BD2DE9F04154
:101660000446016880682269E369104362690025C5
:101670001A4310436B4F0A686B4B1A4002430A60CF
:1016800020684168E26821F44051114341602168BB
:10169000A069B94201D0226A10438A6822F43062FC
:1016A00002438A606149236861488B420DD1D0F8BA
:1016B000880010F0030006D0012838D0022834D06A
:1016C000032821D135E001211FE05A498B420BD17B
:1016D000D0F8880010F00C0025D0042827D0082866
:1016E00023D00C2810D124E0BB420DD1D0F88800C3
:1016F00010F4406017D0B0F5806F18D0B0F5006FCF
:1017000013D0B0F5406F14D010214B4800264FF491
:101710000042BB422FD171B1022912D004290DD051
:10172000082973D125E00021EFE70221EDE704212C
:10173000EBE70821E9E7FFF753F901E0FFF774F958
:10174000F0B3626802EB420181425FD8B0EB023F26
:101750005CD8010E000273084FEA3207C0195941E4
:101760000023FEF731FD354AA0F54071914251D971
:101770004CE01046E5E7E3694FF6EF77934229D155
:10178000092943D2DFE801F005080E420B4242422C
:101790002400FFF725F904E0FFF734F901E0FFF733
:1017A00043F968B14100606801EB5001B1FBF0F012
:1017B00080B2A0F11001B94228D84FF6F07100E0D4
:1017C0002AE00140C0F3420001432068C16023E0E9
:1017D0001046E7E7092919D2DFE801F005080E18DD
:1017E0000B1818181A00FFF7FBF804E0FFF70AF9C6
:1017F00001E0FFF719F978B1616800EB5100B0FB27
:10180000F1F080B2A0F11001B94203D9012503E043
:101810001046F1E72168C860266628466666BDE87E
:10182000F081000000800040F369FFEF00380140C4
:1018300000100240004400400024F400FFFC0F00B0
:101840002DE9F0479A4617460E4604464FF0000928
:101850004FF02008089D39E0681C37D0FEF726FEBF
:10186000A0EB0A00A84222D80DB3206801684907FE
:101870002CD5C069C043000528D421684FF400600E
:1018800008622068016821F4D071016020688168D5
:1018900021F001018160C4F87480C4F87880C4F834
:1018A0007C8000BF84F870900320BDE8F08720683A
:1018B000016821F4D07101602068816821F0010184
:1018C0008160C4F87480C4F87880EBE72068C06950
:1018D00036EA000004D00020B842BDD00020E4E782
:1018E0000120F9E7FEE70907090E002804DB00F1F3
:1018F000E02080F80014704700F00F0000F1E020B5
:1019000080F8141D704702E008C8121F08C1002AA1
:10191000FAD170477047002001E001C1121F002A70
:10192000FBD1704710B5002821D0114B0022001FB9
:10193000196803E0814203D80A4649680029F9D1B1
:1019400052B11368841A9C4204D100681844106094
:10195000104602E0506000E0186039B102680B1ACE
:10196000934203D10B681A4402604968416010BD7C
:101970001800002086B0FEF7A7FDFFF77FFD1421B9
:101980006846FEF75CFC1848C16C41F00101C16477
:10199000C16C01F001010591C16C41F00201C1640B
:1019A000C06C124C00F00200059000220821204675
:1019B000FEF777FD0820009001200021CDE901010C
:1019C000039169462046FEF793FCFFF70BFC0121CB
:1019D0000748FFF727FC04210648FFF723FC00BF58
:1019E000FEF76CFCFCE70000001002400004004819
:1019F000251B00083D1B0008F0B50B30154D20F0ED
:101A000007010024144A0FE003688B420BD38B427A
:101A100005D95E1A43184768C3E9006700E04368C8
:101A2000136002C004E0021D10680028ECD12046BB
:101A3000002802D1286808B10020F0BD064A0748F6
:101A40001060074A121A22F00702C0E900240120A0
:101A50002860D7E71C00002018000020C4010020E7
:101A6000C003002010B50346D0F880008100401C60
:101A7000C3F880005C58A068401EA06003F180009D
:101A8000D3F8881000F084F853F88C0F401E1860CB
:101A9000204610BD1CB504468868401C8860D4F8F8
:101AA000840044F82010D4F88C00401CC4F88C004A
:101AB000D4F884000090D4F88000009988421FD0A8
:101AC0006846D4F8881000F063F80098401E019032
:101AD00001A8D4F8881000F05BF8009854F82010A2
:101AE0000A78019954F821301B789A4208D904EBFE
:101AF000810104EB800000F00FF80098401ED9E748
:101B0000D4F88400401CC4F8840004F18400D4F8A4
:101B1000881000F03DF81CBD02680B6803600A6085
:101B20007047000010B508210348FEF7B2FCBDE87D
:101B300010400A20FFF75EBC000400483EB50020BC
:101B4000114C009001900290092120786B460A22E6
:101B500009E000BFB0FBF2F502FB1505B0FBF2F0A7
:101B600030355D54491E08B10029F3DA4FF0FF33D8
:101B70000A2269460548FFF7D9FA2068401C206010
:101B80000620FFF737FC3EBD0000002020000020AB
:101B90000268002A01DA491E02E08A4201D10021CE
:101BA0000160704700000000000000000102030413
:101BB00006070809A0860100400D0300801A0600F0
:101BC00000350C0040420F0080841E0000093D00DB
:101BD00000127A000024F40000366E010048E8018B
:101BE000006CDC0200000000010203040C1C000871
:101BF0000000002020000000061900082C1C00082E
:101C000020000020A00700001619000800000000B6
:101C100000000000010000001000000000000000B3
:0C1C200000093D00000000000000000072
:040000050800018D61
:00000001FF
