:020000040800F2
:1000000028080020A5010008EF180008D1170008F3
:10001000ED180008B90200082920000800000000BF
:10002000000000000000000000000000E91A0008C5
:10003000BB02000800000000F1180008ED1A0008DB
:10004000BF010008BF010008BF010008BF01000890
:10005000BF010008BF010008BF010008BF01000880
:10006000BF010008BF010008BF010008BF01000870
:10007000BF010008BF010008BF010008BF01000860
:10008000BF010008BF010008BF010008BF01000850
:10009000BF010008BF010008BF010008BF01000840
:1000A000BF010008BF010008BF010008BF01000830
:1000B000BF0100080000000000000000BF010008B0
:1000C000BF0100080000000000000000BF010008A0
:1000D00000000000BF01000801200008000000002F
:1000E000BF010008BF010008000000000000000080
:1000F0000000000000000000000000000000000000
:10010000000000000000000000000000BF01000827
:100110000000000000000000BF010008BF0100084F
:10012000BF010008BF010008BF010008BF010008AF
:10013000BF010008000000000000000000000000F7
:10014000BF010008BF010008BF010008BF0100088F
:10015000BF010008BF010008BF010008BF0100087F
:10016000BF010008BF010008BF0100080000000037
:10017000BF010008BF0100080000000000000000EF
:10018000BF010008BF010008BF010008DFF810D060
:1001900000F080F80048004731210008AFF30080EC
:1001A000280800200648804706480047FEE7FEE78B
:1001B000FEE7FEE7FEE7FEE7FEE7FEE7FEE7FEE717
:1001C000D11B00088D0100082DE9F05F05460020D5
:1001D00092469B4688460646814640241BE02846B8
:1001E00041464746224600F044F853465A46C01A54
:1001F000914110D311461846224600F02BF82D1AD3
:1002000067EB01084F4622460120002100F022F84A
:1002100017EB00094E41201EA4F10104DFDC484623
:1002200031462A46434600F000B830BCBDE8C09FC6
:10023000D2B201E000F8012B491EFBD27047002228
:10024000F6E710B513460A4604461946FFF7F0FFD5
:10025000204610BD202A04DB203A00FA02F10020DB
:1002600070479140C2F1200320FA03F319439040F4
:100270007047202A04DB203A21FA02F0002170475F
:1002800021FA02F3D040C2F12002914008431946FE
:1002900070470000064C074D06E0E06840F001039F
:1002A00094E8070098471034AC42F6D3FFF772FF8A
:1002B0002C2400084C240008FEE770470A4810B5BB
:1002C000D0F88C0000280EDD074801F083FF074CB2
:1002D00020614068804720698168002903D1BDE81A
:1002E000104001F0E3BE10BD04010020000000201A
:1002F00010B590F825100022022905D00421C16311
:1003000080F82420012010BD01680B6823F00E0343
:100310000B6001680B6823F001030B6090F8441038
:10032000046C01F01C03012101FA03F3636080F8FF
:10033000251080F82420104610BD10B590F8251027
:100340000024022903D00421C16301241AE00168BA
:100350000A6822F00E020A6001680A6822F00102AF
:100360000A6090F84410036C01F01C02012101FAAC
:1003700002F25A6080F82510002180F82410816B69
:1003800001B18847204610BD70B5044600F0EAF878
:100390000546601C02D004480078044400F0E2F8EE
:1003A000401BA042FAD370BD1C0000202DE9FC4F79
:1003B000DFF880A1002301250AF1040B03244FF08C
:1003C0000F0C0BF1040EAEE005FA03F632406FD0CD
:1003D0004F68012F05D0022F03D0112F01D0122F0B
:1003E00017D1D0F808905F0004FA07F829EA080945
:1003F0000097D1F80C8008FA07F848EA0908C0F815
:1004000008804768B7430E79C6F300169E403E4306
:100410004660C6684FEA430804FA08F7BE430197EE
:100420008F6807FA08F73743C7604E68022E01D07D
:10043000122E13D1DE0800EB86060096366A5F079F
:10044000FF0E0CFA07F926EA0906D1F8109009FA0E
:1004500007F949EA0609009EC6F820900768019E40
:10046000B7430E7906F0030606FA08F63E43066027
:100470004E68F60056D5304E376E47F001073766A6
:10048000366E23F0030706F0010600962B4E3E441D
:10049000B146B6689F074FEA17780CFA08F7BE43D3
:1004A000B0F1904F05D0264FB84204D1012708E0A3
:1004B00038E0002705E0234FB84201D1022700E0D1
:1004C000072707FA08F73743C9F80870DAF8006019
:1004D0005746D1F8048096435FEAC83800D51643E2
:1004E0003E60DBF800605F46D1F8048096435FEA27
:1004F000883800D516433E60DEF800607746D1F8B4
:10050000048096435FEAC82800D516433E60094F31
:100510000C373E68D1F8048096435FEA882800D5FE
:1005200016433E605B1C0A6832FA03F67FF44CAF58
:1005300000F00AB800040140001002400000014031
:1005400000040048000800481CBCBDE8E08F0069BA
:10055000084000D0012070470AB181617047816274
:100560007047000001488068704700001C000020B0
:1005700090F84120202A24D190F84020012A20D050
:10058000012280F84020242280F84120026813686C
:1005900023F0010313600268136823F4805313608F
:1005A000026813680B43136001680A6842F0010295
:1005B0000A60202180F84110002180F84010084690
:1005C00070470220704790F84120202A22D190F8ED
:1005D0004020012A1ED0012280F84020242280F8E9
:1005E00041200268136823F0010313600268136856
:1005F00023F4706343EA0121116001680A6842F044
:1006000001020A60202180F84110002180F840108A
:10061000084670470220704770B5040004D094F873
:100620004100002510B106E0012070BD84F8405063
:10063000204600F04DF8242084F84100206801682D
:1006400021F0010101606068216820F0706008619C
:100650002068816821F400418160E0680128A06879
:1006600007D040F4044021688860E068022803D085
:1006700006E040F40040F6E721684FF4006048606F
:1006800020684168114A114341602068C16821F423
:100690000041C160D4E904010843A16940EA012096
:1006A0002168C860D4E90701084321680860206810
:1006B000016841F0010101606564202084F8410077
:1006C000256384F84250002070BD000000800002C5
:1006D00010B586B0044614216846FFF7B0FD1349F3
:1006E0002068884220D1124CE06C40F00100E064A8
:1006F000E06C694600F0010005904FF4C060009086
:100700001220019001200290032003900420049005
:100710004FF09040FFF74AFEA06D40F40010A06536
:10072000A06D00F40010059006B010BD005400400C
:1007300000100240024881680278114481607047CD
:100740001C00002010B50024032000F071F80020E8
:1007500000F008F808B1012401E000F025F8204677
:1007600010BD000070B50E4E05460024307898B1DB
:100770004FF47A71B1FBF0F00A490968B1FBF0F06F
:1007800000F0A6FD40B9102D06D200222946501EC9
:1007900000F02EF8756000E00124204670BD0000D6
:1007A0001C00002028000020094808B5016E41F017
:1007B00001010166016E01F001010091816D41F0BE
:1007C00080518165806D00F08050009008BD000070
:1007D00000100240002809DB00F01F0201219140B7
:1007E0004009800000F1E020C0F8001170470000CF
:1007F000F0B40E4B1B680C46C3F30223C3F107058C
:10080000042D00D90425191D072901D2002300E079
:10081000DB1E012606FA05F1491E214099409E4043
:10082000761E16403143F0BC01F0FFBB0CED00E03A
:10083000064900F0070208684FF6FF03184040EA37
:100840000220034A10430860704700000CED00E0EE
:100850000000FA051649B0F5007F0868C0F3412092
:1008600009D0022805D0086820F4C06040F48060F8
:100870000860002070470128FBD0086820F4C060A1
:1008800040F4007008600B483222006850430A4A66
:10089000B0FBF2F0401C00E0401E4A69520501D551
:1008A0000028F9D148694005E3D5032070470000CE
:1008B000007000402800002040420F0002480068FD
:1008C00000F4C06070470000007000402DE9F84F50
:1008D0000446002700889C4D3E46000515D5E06B78
:1008E00060B1B0F5000F04D0B0F5400F2BD0012758
:1008F0000AE0E86840F48030E86024E00021201D30
:1009000001F00CF807001ED03E462068800338D561
:10091000A86D4FF00008C00009D4A86D40F08050C9
:10092000A865A86D4FF0010800F080500090DFF836
:100930001CA2DAF8001041F48071CAF80010FFF729
:1009400011FE814610E0D5F88800E16B20F44000EC
:100950000843C5F88800D8E7FFF704FEA0EB0900BC
:10096000022801D9032704E0DAF80000C005F3D516
:10097000EFB33E46B8F1000F03D0A86D20F08050D1
:10098000A8652078C00707D0D5F88800216A20F034
:1009900003000843C5F888002078800707D5D5F8FC
:1009A0008800616A20F00C000843C5F888002078B0
:1009B000800607D5D5F88800A16A20F44060084376
:1009C000C5F888002088800507D5D5F88800616BB8
:1009D00020F440200843C5F888002088400509D548
:1009E000D5F88800A16B20F44010084300E02EE009
:1009F000C5F888002078400607D5D5F88800E16A58
:100A000020F440500843C5F888002088C00507D569
:100A1000D5F88800216B20F440300843C5F88800E1
:100A200020884FF0006780044FF080684ED5D5F8DD
:100A30008800216C20F040600843C5F88800206CD5
:100A4000B8423BD1E86840F48010E8603EE0D5F859
:100A5000900010F4407014D0216D814211D0D5F86F
:100A60009000D5F8901020F4407041F48031C5F822
:100A70009010D5F8901021F48031C5F89010C5F889
:100A80009000C00711D0FFF76DFD074641F288398D
:100A900007E000BFFFF766FDC11B494501D90326EA
:100AA00068E7D5F890008007F4D5D5F89000216D5F
:100AB00020F440700843C5F890005BE7404505D13D
:100AC0000121201D00F02AFF00B1064620684003E6
:100AD00017D5D5F88800616C20F040600843C5F850
:100AE0008800606CB84204D1E86840F48010E86087
:100AF00007E0404505D10121201D00F00FFF00B1A6
:100B000006462088400411D5D5F88800A16C20F055
:100B100040500843C5F88800A06CB0F1805F05D153
:100B20000221201D00F0FAFE00B1064620880004D4
:100B300006D555F8880FE16C20F080400843286006
:100B4000304600F005B80000001002400070004080
:100B500018BCBDE8E08F00002DE9F0470F46050006
:100B600058D0404E306800F00700B84209D23068D3
:100B700020F0070038433060306800F00700B842CA
:100B800048D12878384CC0072CD06868032811D089
:100B9000022812D0216898B1490500293ADAA168E3
:100BA00021F003010143A160FFF7DCFC804641F224
:100BB000883910E021688901EFE721688903ECE7B3
:100BC0008907EAE7FFF7CEFCA0EB0801494502D907
:100BD0000320BDE8F087A068696800F00C00B0EB66
:100BE000810FEFD12878800705D5A068A96820F08B
:100BF000F0000843A060306800F00700B8420BD94D
:100C0000306820F0070038433060306800F007009B
:100C1000B84201D00120DCE72878400705D5A0685C
:100C2000E96820F4E0600843A0602878000706D552
:100C3000A068296920F4605040EAC100A06000F07B
:100C40003FF8A168094AC1F30311515C01F01F018B
:100C5000C8400749086007480068BDE8F047FFF74B
:100C600081BD00000020024000100240E423000883
:100C700028000020200000200548064900688968F7
:100C8000054AC1F30221515C01F01F01C8407047C1
:100C900028000020001002402424000805480649CE
:100CA00000688968054AC1F3C221515C01F01F0147
:100CB000C84070472800002000100240242400088B
:100CC00070B52549002318468A68CC6812F00C02DA
:100CD00004F00306214C4FEA640509D00C2A05D024
:100CE000042A32D0082A00D1284670BD012E10D126
:100CF0000B681B0704D4D1F89430C3F3032302E03C
:100D00000B68C3F30313164E56F82330DAB10C2ADE
:100D1000EBD1C86800F00300022818D0032818D0CF
:100D20001846CA68CB68C2F30212C3F306234343D2
:100D3000521CB3FBF2F2C868C0F34160401C400093
:100D4000B2FBF0F070BD184670BD204670BD204665
:100D5000E7E72846E5E70000001002400024F40021
:100D6000F42300082DE9F84304006FD0FE4DA86875
:100D700000F00C06E86800F003072078C00664D590
:100D800076B10C2E01D1012F0AD0A0690028286865
:100D90007AD040F001002860FFF7E4FB80465DE078
:100DA0002868800702D5A0690028DED0216A28685B
:100DB000000703D5286800F0F00004E0D5F894009F
:100DC000F02202EA1010814216D9084600F03CFEDB
:100DD00000283BD1286840F0080028602868216A74
:100DE00020F0F000084328606868E16920F47F4043
:100DF00040EA0120686016E0286840F0080028609A
:100E00002868216A20F0F000084328606868E169DA
:100E100020F47F4040EA0120686026B9206A00F093
:100E200013FE0028D5D1FFF74BFFA968CF4AC1F3C5
:100E30000311515C01F01F01C840CD490860CD4845
:100E40000068FFF78FFC00287ED12EE0CAE000BFCB
:100E5000FFF788FBA0EB0800022876D828688007F7
:100E6000F6D5286840F0080028602868216A20F03C
:100E7000F000084328606868E16920F47F4040EA98
:100E80000120686011E0FFE720F001002860FFF713
:100E900069FB804606E000BFFFF764FBA0EB08009B
:100EA0000228DAD828688007F6D42078C00740D016
:100EB000082E18D00C2E01D1032F14D06068B0F585
:100EC000803F17D0B0F5A02F286817D020F48030CD
:100ED0002860286820F4802028606068E0B1FFF76F
:100EE00041FB804614E02868800322D56068002812
:100EF00078D01EE0286840F48030EDE740F4802090
:100F00002860F7E7FFF72EFBA0EB08006428A4D8C1
:100F100028688003F6D50CE0FFF724FB804605E047
:100F2000FFF720FBA0EB0800642896D82868800310
:100F3000F6D4207880073BD5042E11D00C2E01D199
:100F4000022F0DD0E06801E0B6E1FFE0002828683C
:100F50001ED040F480702860FFF704FB07460CE0C9
:100F6000286840050CD5E0680028C1D008E000BF23
:100F7000FFF7F8FAC01B022893D828684005F7D578
:100F80006868217C20F0F85040EA016068600FE05A
:100F900020F480702860FFF7E5FA074605E000BFFF
:100FA000FFF7E0FAC01B0228B1D828684005F7D443
:100FB0002078000729D560690028D5F8940012D060
:100FC00040F00100C5F89400FFF7CCFA074604E0B2
:100FD000FFF7C8FAC01B022899D8D5F894008007FB
:100FE000F6D512E02BE120F00100C5F89400FFF7E0
:100FF000B9FA074605E000BFFFF7B4FAC01B0228A4
:1010000085D8D5F894008007F6D42078400766D5B7
:10101000A86D0027C00008D4A86D40F08050A865D6
:10102000A86D012700F08050009053480168C90561
:1010300012D40168814641F480710160FFF792FA91
:10104000804605E0FFF78EFAA0EB080002287DD865
:10105000D9F80000C005F5D5A068012816D00528EC
:10106000D5F8900017D020F00100C5F89000D5F811
:10107000900020F0040000BFC5F89000A06841F285
:101080008839C0B1FFF76EFA80460FE0D5F89000BE
:1010900040F00100F0E740F00400C5F89000F5E7EB
:1010A000FFF760FAA0EB080149454FD8D5F890004A
:1010B0008007F5D50EE0FFF755FA804606E000BF41
:1010C000FFF750FAA0EB080149453FD8D5F890004A
:1010D0008007F5D41FB1A86D20F08050A865207856
:1010E000800628D5606A0028D5F8980012D040F014
:1010F0000100C5F89800FFF735FA074605E000BF84
:10110000FFF730FAC01B022820D8D5F898008007D6
:10111000F6D510E020F00100C5F89800FFF722FA9C
:10112000074604E0FFF71EFAC01B02280ED8D5F8C8
:1011300098008007F6D4A06AA8B1022824D00C2E0B
:101140007DD0286820F08070286000E0B3E0286837
:10115000000103D4E86820F00300E860E86807496C
:101160000840E8600CE09FE000100240E423000823
:10117000280000202000002000700040FFFFEEFE4D
:10118000FFF7F0F9044699E0E868E26A00F003012D
:10119000914226D1216B00F0700209011039914271
:1011A0001FD1626B00F4FE41B1EB022F19D194F80C
:1011B000382000F07841B1EBC26F12D1A18F00F45A
:1011C000C00249084905A1F50011914209D194F8DE
:1011D000401000F0C06049084906A1F10071814249
:1011E0004BD00C2E6FD0286840016CD4286820F0BA
:1011F00080702860FFF7B6F9064604E0FFF7B2F901
:10120000801B022857D828688001F7D4F4E90B0125
:101210006FF00F0202EB01110843218A52044908C2
:1012200002EB4151A26841EA02210843217D4FF0BF
:101230007E42490802EB41610843217B00E042E025
:1012400040EAC160E968214A11400843E860286823
:1012500040F080702860E86840F08070E860FFF738
:1012600081F9044605E000BFFFF77CF9001B022866
:1012700021D828688001F7D523E02868800120D490
:10128000286840F080702860E86840F08070E8606E
:10129000FFF768F9044604E0FFF764F9001B022831
:1012A00009D828688001F7D50BE000BFFFF75AF98D
:1012B000001B022802D90320BDE8F88328688001BA
:1012C000F4D40020F8E70120F6E700008C809D01AF
:1012D00010B5401EB0F1807F01D3012010BD4FF04A
:1012E000E02460610F21601700F09FFE0020A061E4
:1012F00007202061002010BD704770477047000034
:101300002DE9F04102680446D0691168936840F6FF
:101310000F0528424FF0000505D1860678D58E06C8
:1013200076D5616EF3E0834F03F001060F4037433B
:101330007ED0C70709D0CF0507D501271762D4F89B
:10134000802042F00102C4F8802082070AD5DA0723
:1013500008D0276802223A62D4F8802042F00402C2
:10136000C4F8802042070AD5DA0708D0236804228F
:101370001A62D4F8802042F00202C4F880200207EA
:101380000CD501F02002324308D0236808221A62EB
:10139000D4F8802042F00802C4F8802002050BD562
:1013A0004A0109D523684FF400621A62D4F88020FC
:1013B00042F02002C4F88020D4F88020002A2FD0E8
:1013C000800605D5880603D5616E09B12046884799
:1013D000D4F8800021688968490602D410F0280FEB
:1013E00020D0204600F0B2FC20688168490614D560
:1013F000816821F040018160206F70B14E498163A6
:10140000206FFEF79AFF00280AD0206F816B01E061
:101410000EE02046BDE8F04108472046FFF76EFF8A
:10142000BDE8F0812046FFF769FFC4F88050F7E778
:10143000276E2026012F59D1C70657D5CF0655D57F
:10144000102010622268906840062ED5216F08682F
:1014500040680004000CE3D0B4F858308342DFD970
:10146000A4F85A0008680068800617D4106820F4B1
:10147000807010602068816821F00101816020681F
:10148000816821F040018160E66725662068016877
:1014900021F010010160206FFEF72AFFB4F8580018
:1014A000B4F85A10401A81B21CE0B4F85800B4F8ED
:1014B0005A10401A81B2B4F85A000028B0D000295E
:1014C000AED0106820F4907010602068826822F01E
:1014D00001028260E667256665662068026822F080
:1014E000100202602046FFF707FF99E7C70209D5FF
:1014F0005B0207D54FF4801010622046BDE8F04132
:10150000FFF7FBBE030606D50B0604D5A16E002926
:101510007FF47FAF84E7400682D5480680D5106807
:1015200020F040001060A6672046A56600F04FF945
:1015300076E7000020010004391D000810B5040002
:1015400002D0A06F10B107E0012010BD002084F888
:101550007400204600F026F82420A0672068016867
:1015600021F001010160204600F008FC0128ECD0C8
:10157000606A10B1204600F04DFB2068416821F4FC
:10158000904141602068816821F02A0181602068D3
:10159000016841F0010101602046BDE8104000F003
:1015A0009DBB000010B586B0044614216846FEF7C6
:1015B00046FE17492068884227D11648816D41F4BC
:1015C00000318165816D01F400310591C16C41F0FC
:1015D0000101C164C06C694600F0010005900C2057
:1015E0000090022001900020029003200390072029
:1015F00004904FF09040FEF7D9FE002211462620BD
:10160000FFF7F6F82620FFF7E5F806B010BD00005A
:1016100000440040001002402DE9F84F0446C06F1E
:101620009A4616460D46202870D10DB306B394F89D
:10163000740001286AD0012084F874004FF000087B
:10164000C4F880802221E167C4F860805834FEF736
:1016500089FF24F8026B814624F852694FF48053C5
:1016600054F80809FF21984208D122691AB11CE0F8
:10167000012000F04DB840F2FF1116E07F2290B13A
:10168000B0F1805F14D0A4F85C8000BFB4F85C7047
:10169000984201D1206990B12E46002584F87480CB
:1016A00007F0FF0825E0266936B9A4F85C10EDE7DD
:1016B000216909B13F21F8E7A4F85C20E6E700269C
:1016C000ECE74B46002220212046CDF800A000F098
:1016D00045FC08B10320CCE72068808C8EB100EA7D
:1016E000080006F8010B00BFB4F85A00401EA4F829
:1016F0005A00B4F85A000028E3D12020E067002007
:10170000B7E7384025F8020BEEE7FFE70220B0E725
:1017100018BCBDE8E08F00002DE9F8430446806F57
:101720001F4616460D4620284FD1CDB1C6B194F8BC
:101730007400012849D0012084F874004FF000089B
:10174000C4F880802120A067FEF70CFFA4F8506049
:101750008146A4F85260A068B0F5805F03D004E031
:101760000120BDE8F883206928B12E465FF000050E
:1017700084F8748010E00026FAE78021204600F00B
:10178000EDFBB8B9C6B116F8010B21680885B4F8AD
:101790005200401EA4F85200B4F852004B464FF0DD
:1017A000000200970028E8D14FF04001204600F0E9
:1017B000D5FB30B10320D4E735F8020BC0F30800A5
:1017C000E3E72020A0670020CBE70220C9E77047AD
:1017D000FEE70000F0B587B014216846FEF72FFD44
:1017E0001D48C16C41F00101C164C16C01F00101EF
:1017F0000591C16C41F00201C164C06C4FF090468C
:1018000000F002000590002201213046FEF7A4FE00
:10181000124F002208213846FEF79EFE01250024C3
:101820000095CDE90154694630460394FEF7BEFDAC
:101830000220CDE90004694630460294FEF7B6FD69
:1018400008200090CDE90154694638460394FEF71C
:10185000ADFD07B0F0BD00000010024000040048DC
:10186000134810B51149016040F614614160002130
:101870000122C0E90212016141618161C16101621D
:10188000FEF7CAFE08B172B6FEE700210848FEF76F
:101890006FFE08B172B6FEE700210548FEF793FE21
:1018A000002801D072B6FEE710BD000000540040D1
:1018B000340000200C4810B50A4901604FF4E131B2
:1018C0004160002181600C22C160C0E90412816185
:1018D000C16101624162FFF731FE002801D072B69A
:1018E000FEE710BD0044004080000020FEE7FEE758
:1018F0007047000070B505460C460C2000F034FC23
:10190000456004700146447000208860BDE8704066
:10191000014800F077BC0000040100202DE9F041EF
:10192000444C05468846E0680026810728680DD0AB
:10193000E16801F00301814216D1A8B1E06869684D
:10194000C0F30210401C88420ED120E0012804D0D0
:10195000022805D0032807D108E02168890701E0A3
:1019600021684905002907DB01265FE0216889031A
:1019700002D421684903F5E7E1686A686FF00F0354
:1019800021F0730103EB021211430143E16020686F
:1019900020F080602060FEF7E5FD074605E000BF0F
:1019A000FEF7E0FDC01B022837D820680001F7D4FD
:1019B000B8F1000F18D0B8F1010F1DD0287D4FF0FD
:1019C0007E41400801EB4060A96840EA012021699E
:1019D000194A114008432061206840F0806020606F
:1019E000FEF7C0FD07461AE0A868297B000240EA1E
:1019F000C1602169114AECE7288A1149400801EBCE
:101A00004050A96840EA012021690E4AE1E700BF81
:101A1000FEF7A8FDC01B022801D9032606E02068B6
:101A20000001F5D52069A969084320613046BDE869
:101A3000F081000000100240FF80FFF9FF80FF07E7
:101A40000000E0FFFF809FFFF8B51C4D0646002414
:101A5000A86DC00002D5FEF731FF0DE0A86D40F083
:101A60008050A865A86D00F080500090FEF726FF1A
:101A7000A96D21F08051A965B0F5007F04D0802EBA
:101A800007D94FF003040AE0802E08D9A02E01D810
:101A900004E001D1022402E0702E00D101240848A4
:101AA000016821F0070121430160006800F0070090
:101AB000A04201D00120F8BD0020F8BD0010024076
:101AC000002002400649096920B10870054800BF9E
:101AD00000F098BB4878087002489038F8E700009A
:101AE00000000020940100207047000038B5174C1A
:101AF000D4F8800000900CE054F820100878401EC4
:101B000008700098401C00906846D4F8881000F0D7
:101B10005EFCD4F8841000988142EDD108E00B48B7
:101B200000F058FB417801700146094800F06AFB5B
:101B3000D4F8800054F82000007818B9D4F88C004C
:101B40000028ECDCFEF7F6FD38BD00009401002013
:101B50000401002010B5ACB0442115A8FEF76FFBBE
:101B6000142126A8FEF76BFB54216846FEF767FB9D
:101B70001020159001200024CDE91B0460201D9049
:101B80001F9415A8FFF7EEF808B172B6FEE70F2014
:101B9000CDE9260428942994002126A82A94FEF74A
:101BA000DBFF08B172B6FEE74220009009940B9467
:101BB0006846FEF78BFE08B172B6FEE74FF4007080
:101BC000FEF748FE002801D072B6FEE72CB010BD2B
:101BD0000D48016841F4700101600C48016841F052
:101BE00001010160002181600268094B1A40026016
:101BF0008214C260026822F480220260816102497C
:101C0000C00380390860704788ED00E00010024092
:101C1000FFFFF6EA90F82410C90706D001684A6869
:101C2000836A22F400321A434A6090F8241089072C
:101C300006D501684A68C36A22F480321A434A60B2
:101C400090F82410490706D501684A68036B22F40E
:101C500080221A434A6090F82410090706D50168CB
:101C60004A68436B22F400421A434A6090F82410F9
:101C7000C90606D501688A68836B22F480521A432C
:101C80008A6090F82410890606D501688A68C36BBB
:101C900022F400521A438A6090F82410490611D5A4
:101CA00001684A68036C22F480121A434A60016C8E
:101CB000B1F5801F06D101684A68436C22F4C00266
:101CC0001A434A6090F82410090606D501684A684C
:101CD000806C22F4002202434A607047F8B5002667
:101CE0000446C0F88060FEF73DFC054620680068A9
:101CF0006FF07E47000708D52B4600224FF40011F5
:101D00002046009700F02AF960B920680068400773
:101D10000AD52B4600224FF480012046009700F0A0
:101D20001DF908B10320F8BD2020A067E0672666F2
:101D300084F874600020F8BD10B5806A0021A0F816
:101D40005A10A0F85210FFF7D9FA10BD01680A68BE
:101D500022F490720A6001688A6822F001028A60A7
:101D6000016E012904D101680A6822F010020A609C
:101D70002021C16700210166416670472DE9F041CD
:101D8000044600682269A168E6691143626900257A
:101D9000324311436A4B02686A4E32400A43026082
:101DA00020684168E26821F4405111434160216894
:101DB000A069994201D0226A10438A6822F43062F5
:101DC00002438A606049276860488F420DD1D0F88D
:101DD000880010F0030006D0012838D0022834D043
:101DE000032821D135E001211FE059498F420BD151
:101DF000D0F8880010F00C0025D0042827D008283F
:101E000023D00C2810D124E09F420DD1D0F88800B7
:101E100010F4406017D0B0F5806F18D0B0F5006FA7
:101E200013D0B0F5406F14D010214A4800264FF46B
:101E300000429F422DD171B1022912D004290DD048
:101E4000082971D123E00021EFE70221EDE7042109
:101E5000EBE70821E9E7FEF70FFF01E0FEF730FFAF
:101E6000E8B3626802EB420181425DD8B0EB023F09
:101E70005AD8010E03025008181871410023FEF7CA
:101E8000A3F9354AA0F54071914251D94CE0104672
:101E9000E7E7E3694FF6EF77934229D1092943D267
:101EA000DFE801F005080E420B4242422400FEF733
:101EB000E3FE04E0FEF7F2FE01E0FEF701FF70B181
:101EC0004100606801EB5001B1FBF0F080B2A0F17D
:101ED0001001B94228D84FF6F071014000E029E026
:101EE000C0F3420001432068C16023E01046E7E7E9
:101EF000092919D2DFE801F005080E180B18181887
:101F00001A00FEF7B9FE04E0FEF7C8FE01E0FEF796
:101F1000D7FE78B1616800EB5100B0FBF1F080B200
:101F2000A0F11001B94203D9012503E01046F1E701
:101F30002168C86066662846A666BDE8F081000094
:101F400000800040F369FFEF0038014000100240BC
:101F5000004400400024F400FFFC0F002DE9F0478E
:101F60009A4617460E4604464FF000094FF02008E7
:101F7000089D39E0681C37D0FEF7F4FAA0EB0A00A0
:101F8000A84222D80DB32068016849072CD5C06942
:101F9000C043000528D421684FF40060086220681F
:101FA000016821F4D07101602068816821F001018D
:101FB0008160C4F87880C4F87C80C4F8808000BF59
:101FC00084F874900320BDE8F0872068016821F44C
:101FD000D07101602068816821F001018160C4F83E
:101FE0007880C4F87C80EBE72068C06936EA00009E
:101FF00004D00020B842BDD00020E4E70120F9E77A
:1020000010B501210648FFF775FC06480068016815
:1020100021F020010160BDE810400248FFF770B9CF
:102020003123000880000020FEE70907090E002880
:1020300004DB00F1E02080F80014704700F00F008E
:1020400000F1E02080F8141D704702E008C8121F5C
:1020500008C1002AFAD170477047002001E001C191
:10206000121F002AFBD1704710B50E4C0122082127
:102070002046FEF771FA0120FEF786F900220821BA
:102080002046FEF769FA0848C168002901DC0121F1
:1020900002E0142901DB1421C160BDE810400846AC
:1020A000FFF710BD000400480000002010B5002814
:1020B00021D0114B0022001F196803E0814203D890
:1020C0000A4649680029F9D152B11368841A9C4222
:1020D00004D1006818441060104602E0506000E02F
:1020E000186039B102680B1A934203D10B681A4485
:1020F00002604968416010BD2C0000200A490020A0
:10210000202241F8800FC1E90102C86006499031E0
:1021100041F8800FC1E90102C86004481421006839
:10212000B0FBF1F0FFF7D4B8040100202800002034
:10213000FEF708FBFFF70EFDFFF74CFBFFF7BAFBBE
:10214000FFF78EFBFFF7DAFF01210548FFF7D2FB0F
:1021500002210448FFF7CEFBFEF7B0F8FCE70000D1
:102160008922000869200008F0B50B30154D20F0D9
:1021700007010024144A0FE003688B420BD38B4203
:1021800005D95E1A43184768C3E9006700E0436851
:10219000136002C004E0021D10680028ECD1204644
:1021A000002802D1286808B10020F0BD064A07487F
:1021B0001060074A121A22F00702C0E90024012029
:1021C0002860D7E7300000202C0000202C020020DF
:1021D0002804002010B50346D0F880008100401C80
:1021E000C3F880005C58A068401EA06003F1800026
:1021F000D3F8881000F0EBF853F88C0F401E1860ED
:10220000204610BD1CB504468868401C8860D4F880
:10221000840044F82010D4F88C00401CC4F88C00D2
:10222000D4F884000090D4F88000009988421FD030
:102230006846D4F8881000F0CAF80098401E019053
:1022400001A8D4F8881000F0C2F8009854F82010C3
:102250000A78019954F821301B789A4208D204EB8D
:10226000810104EB800000F0ADF80098401ED9E732
:10227000D4F88400401CC4F8840004F18400D4F82D
:10228000881000F0A4F81CBD3EB501224FF0904527
:1022900011462846FEF760F90A20FEF775F800227D
:1022A00001212846FEF758F9002402212846FEF7AE
:1022B0004EF90028F9D000E0641C02212846FEF700
:1022C00046F90128F8D0642094FBF0F01549C86065
:1022D00000200090019002900920002C0FDD6B4639
:1022E0005FF00A0194FBF1F201FB124294FBF1F45E
:1022F00030321A54401E002C01DD0028F2DC4FF071
:10230000FF3423460A2269460748FFF705FA2346A9
:10231000032206A10448FFF7FFF90520FFF7D2FBCF
:102320003EBD000000000020800000200A0D0000DB
:1023300070B5224D0A23A5F114040122A0682918C2
:102340001F48FFF769F9A0680A23291801221C48D1
:10235000FFF7E2F91A480068016841F020010160C6
:10236000A068295C0A2901D0401C24E00021012337
:1023700006E0303A02FB03F103EB83025300401EF8
:102380002A5C2E2AF5D1192291FBF2F1491CCBB21D
:10239000002101222370401EA06006E0295C303934
:1023A000514302EB82025200401E0028F6DC43EA51
:1023B000810020700020A06070BD0000140000208B
:1023C0008000002002680B6803600A6070470268A2
:1023D000002A01DA491E02E08A4201D1002101608F
:1023E000704700000000000000000000010203042C
:1023F00006070809A0860100400D0300801A0600A8
:1024000000350C0040420F0080841E0000093D0092
:1024100000127A000024F40000366E010048E80142
:10242000006CDC0200000000010203044C240008E0
:1024300000000020340000004A200008802400082A
:1024400034000020F40700005A20000800000000BB
:10245000000000000000000000000000000000007C
:10246000000000000000000001000000100000005B
:102470000000000000093D00000000000000000016
:040000050800018D61
:00000001FF
